:020000040000fa
:080000000002040000000000f2
:020000040000fa
:04000800fa0e0000ec
:020000040000fa
:04000c00fa0e0000e8
:020000040000fa
:04001000fa0e0000e4
:020000040000fa
:04001400fa0e0000e0
:020000040000fa
:04001800fa0e0000dc
:020000040000fa
:04001c00fa0e0000d8
:020000040000fa
:04002000fa0e0000d4
:020000040000fa
:04002400fa0e0000d0
:020000040000fa
:04002800d4020000fe
:020000040000fa
:04002c00fa0e0000c8
:020000040000fa
:04003000fa0e0000c4
:020000040000fa
:0400340014030000b1
:020000040000fa
:04003800d40c0000e4
:020000040000fa
:04003c00fa0e0000b8
:020000040000fa
:04004000fa0e0000b4
:020000040000fa
:04004400fa0e0000b0
:020000040000fa
:04004800fa0e0000ac
:020000040000fa
:04004c00fa0e0000a8
:020000040000fa
:04005000fa0e0000a4
:020000040000fa
:04005400fa0e0000a0
:020000040000fa
:04005800fa0e00009c
:020000040000fa
:04005c00fa0e000098
:020000040000fa
:04006000dc0c0000b4
:020000040000fa
:04006400fa0e000090
:020000040000fa
:04006800fa0e00008c
:020000040000fa
:04006c00fa0e000088
:020000040000fa
:04007000fa0e000084
:020000040000fa
:04007400fa0e000080
:020000040000fa
:04007800ec02000096
:020000040000fa
:04007c00fa0e000078
:020000040000fa
:04008000fa0e000074
:020000040000fa
:04008400fa0e000070
:020000040000fa
:04008800fa0e00006c
:020000040000fa
:04008c00fa0e000068
:020000040000fa
:04009000fa0e000064
:020000040000fa
:040094001c03000049
:020000040000fa
:04009800840c0000d4
:020000040000fa
:04009c00000300005d
:020000040000fa
:0400a000fa0e000054
:020000040000fa
:0400a400fa0e000050
:020000040000fa
:0400a800fa0e00004c
:020000040000fa
:0400ac00fa0e000048
:020000040000fa
:0400b000fa0e000044
:020000040000fa
:0400b400fa0e000040
:020000040000fa
:0400b800fa0e00003c
:020000040000fa
:0400bc00fa0e000038
:020000040000fa
:0400c000fa0e000034
:020000040000fa
:0400c400fa0e000030
:020000040000fa
:0400c800fa0e00002c
:020000040000fa
:0400cc00fa0e000028
:020000040000fa
:0400d000fa0e000024
:020000040000fa
:0400d400fa0e000020
:020000040000fa
:0400d800fa0e00001c
:020000040000fa
:0400dc00fa0e000018
:020000040000fa
:0400e000fa0e000014
:020000040000fa
:0400e400fa0e000010
:020000040000fa
:0400e800fa0e00000c
:020000040000fa
:0400ec00fa0e000008
:020000040000fa
:0400f000fa0e000004
:020000040000fa
:0400f400fa0e000000
:020000040000fa
:0400f800fa0e0000fc
:020000040000fa
:0400fc00fa0e0000f8
:020000040000fa
:04010000fa0e0000f3
:020000040000fa
:04010400fa0e0000ef
:020000040000fa
:04010800fa0e0000eb
:020000040000fa
:04010c00fa0e0000e7
:020000040000fa
:04011000fa0e0000e3
:020000040000fa
:04011400fa0e0000df
:020000040000fa
:04011800fa0e0000db
:020000040000fa
:04011c00fa0e0000d7
:020000040000fa
:04012000fa0e0000d3
:020000040000fa
:04012400fa0e0000cf
:020000040000fa
:04012800fa0e0000cb
:020000040000fa
:04012c00f20e0000cf
:020000040000fa
:04013000fa0e0000c3
:020000040000fa
:04013400fa0e0000bf
:020000040000fa
:04013800fa0e0000bb
:020000040000fa
:04013c00fa0e0000b7
:020000040000fa
:04014000fa0e0000b3
:020000040000fa
:04014400fa0e0000af
:020000040000fa
:04014800fa0e0000ab
:020000040000fa
:04014c00fa0e0000a7
:020000040000fa
:04015000fa0e0000a3
:020000040000fa
:04015400fa0e00009f
:020000040000fa
:04015800fa0e00009b
:020000040000fa
:04015c00fa0e000097
:020000040000fa
:04016000fa0e000093
:020000040000fa
:04016400fa0e00008f
:020000040000fa
:04020800fa0e0000ea
:020000040000fa
:04020c00fa0e0000e6
:020000040000fa
:04021000fa0e0000e2
:020000040000fa
:04021400fa0e0000de
:020000040000fa
:04021800fa0e0000da
:020000040000fa
:04021c00fa0e0000d6
:020000040000fa
:04022000fa0e0000d2
:020000040000fa
:04022400fa0e0000ce
:020000040000fa
:04022800fa0e0000ca
:020000040000fa
:04022c00fa0e0000c6
:020000040000fa
:04023000fa0e0000c2
:020000040000fa
:04023400fa0e0000be
:020000040000fa
:04023800fa0e0000ba
:020000040000fa
:04023c00fa0e0000b6
:020000040000fa
:04024000fa0e0000b2
:020000040000fa
:04024400fa0e0000ae
:020000040000fa
:04024800fa0e0000aa
:020000040000fa
:04024c00fa0e0000a6
:020000040000fa
:04025000fa0e0000a2
:020000040000fa
:04025400fa0e00009e
:020000040000fa
:04025800fa0e00009a
:020000040000fa
:04025c00fa0e000096
:020000040000fa
:04026000fa0e000092
:020000040000fa
:04026400fa0e00008e
:020000040000fa
:04026800fa0e00008a
:020000040000fa
:04026c00fa0e000086
:020000040000fa
:04027000fa0e000082
:020000040000fa
:04027400fa0e00007e
:020000040000fa
:04027800fa0e00007a
:020000040000fa
:04027c00fa0e000076
:020000040000fa
:04028000fa0e000072
:020000040000fa
:04028400fa0e00006e
:020000040000fa
:04028800fa0e00006a
:020000040000fa
:04028c00fa0e000066
:020000040000fa
:04029000fa0e000062
:020000040000fa
:04029400fa0e00005e
:020000040000fa
:04029800fa0e00005a
:020000040000fa
:04029c00fa0e000056
:020000040000fa
:0402a000fa0e000052
:020000040000fa
:0402a400fa0e00004e
:020000040000fa
:0402a800fa0e00004a
:020000040000fa
:0402ac00fa0e000046
:020000040000fa
:0402b000fa0e000042
:020000040000fa
:0402b400fa0e00003e
:020000040000fa
:0402b800fa0e00003a
:020000040000fa
:0402bc00fa0e000036
:020000040000fa
:0402c000fa0e000032
:020000040000fa
:0402c400fa0e00002e
:020000040000fa
:0402c800fa0e00002a
:020000040000fa
:0402cc00fa0e000026
:020000040000fa
:0402d000fa0e000022
:020000040000fa
:0402d400fa0e00001e
:020000040000fa
:0402d800fa0e00001a
:020000040000fa
:0402dc00fa0e000016
:020000040000fa
:0402e000fa0e000012
:020000040000fa
:0402e400fa0e00000e
:020000040000fa
:0402e800fa0e00000a
:020000040000fa
:0402ec00fa0e000006
:020000040000fa
:0402f000fa0e000002
:020000040000fa
:0402f400fa0e0000fe
:020000040000fa
:0402f800fa0e0000fa
:020000040000fa
:0402fc00fa0e0000f6
:020000040000fa
:04030000fa0e0000f1
:020000040000fa
:04030400fa0e0000ed
:020000040000fa
:04030800fa0e0000e9
:020000040000fa
:04030c00fa0e0000e5
:020000040000fa
:04031000fa0e0000e1
:020000040000fa
:04031400fa0e0000dd
:020000040000fa
:04031800fa0e0000d9
:020000040000fa
:04031c00fa0e0000d5
:020000040000fa
:04032000fa0e0000d1
:020000040000fa
:04032400fa0e0000cd
:020000040000fa
:04032800fa0e0000c9
:020000040000fa
:04032c00fa0e0000c5
:020000040000fa
:04033000fa0e0000c1
:020000040000fa
:04033400fa0e0000bd
:020000040000fa
:04033800fa0e0000b9
:020000040000fa
:04033c00fa0e0000b5
:020000040000fa
:04034000fa0e0000b1
:020000040000fa
:04034400fa0e0000ad
:020000040000fa
:04034800fa0e0000a9
:020000040000fa
:04034c00fa0e0000a5
:020000040000fa
:04035000fa0e0000a1
:020000040000fa
:04035400fa0e00009d
:020000040000fa
:04035800fa0e000099
:020000040000fa
:04035c00fa0e000095
:020000040000fa
:04036000fa0e000091
:020000040000fa
:04036400fa0e00008d
:020000040000fa
:100400008fa420006e7b24000e01880000000000f5
:10041000000020000000e000020032000001200087
:100420002002880014000700e90607000000e00031
:1004300003003a0080592300010020000200370029
:100440000000200001002000810f70000100320038
:1004500014000700000020000000e000020032004d
:100460000000020000000000523502000000000001
:100470000040da000000fe004440a900a00820006f
:100480000000e0000300320000002000a00188000e
:100490004440a800000006008a1f78008b1f7800e7
:1004a0000000060091018800800478000000eb0045
:1004b0001a003700e284440032a0b4009905ba0063
:1004c000e284440032a0b4009906ba00e2844400f9
:1004d00032a0b4000006eb00476fde00fd07b2005b
:1004e000636ce10003003a00ebff07000000eb0043
:1004f0000a003700606ce10004003a00005deb0088
:100500008b05e900fdff3e00040037006168e10053
:10051000010032000086eb000b00070019c7ba008b
:100520001905ba000e04e00003003a000a00e000da
:10053000e0ff3a0000000600fe07b2009e018800be
:100540008a047800f5ff3700395dba008b05e900b1
:100550000c003200295dba008b05e900080032006a
:100560000c00e00003003a00e284440032a0b40032
:10057000f5ff370019ddba008b05e900faff3a00f4
:100580008904e800e184440032a0b40000000600c1
:10059000000000000000000000000000000000005b
:1005a0000000000000000000801f78000000fa003a
:1005b000c402a900c422a900c482a900cc82a90057
:1005c00010c0b30000e8b7008400a9000080fa0062
:1005d0004f00780000400600801f78000000fa00fd
:1005e00001c8bf000004e000010032000168ef0014
:1005f0008680a9000080fa004f00780000400600c5
:10060000801f78000000fa0002c8bf000004e0006c
:10061000010032000268ef0087a0a9000080fa0004
:100620004f007800004006000000fa008460a90036
:100630000080fa00004006003600f800809fbe00ef
:10064000829fbe00849fbe00869fbe00889fbe0022
:100650008a9fbe005000fa006000b800401f98005a
:10066000511f98006000b800601f9800711f98002b
:10067000200f80006101b800a00f80008000eb0017
:100680000227980013279800202798003127980008
:100690006000b80040279800512798006000b8001b
:1006a000602798007127980094428000a54280003e
:1006b00090428000a14280000001be000400be0004
:1006c0008b07070050079800610798009042800050
:1006d000a14280000001be005e009000ee0090008c
:1006e0008307070070079800010f98000000eb00d7
:1006f000000f78000000eb00000f78000d033700ba
:100700009ac8bf000004e00046003a001e007800ce
:10071000c200dd00409d2000008040001004be00ab
:100720009e00780063804000c200dd00409d2000f4
:10073000008040001000be005e019000ee019000bd
:100740006b0707000001be000800be00220607007c
:100750000004be001e01780066004100c200dd00fa
:10076000409d2000008040001000be007e019000ef
:100770008e0990005e0707000001be000800be0061
:10078000150607001e017800c211dd00829c2000c2
:10079000028141000089be009e0178006380410013
:1007a000c200dd00409d2000008040001000be001f
:1007b0000001be00080607000002be009042800053
:1007c000a14280000001be000400be0048070700ef
:1007d0000004be009e00780066804000c200dd007c
:1007e000409d2000008040001000be00020020005c
:1007f000030424003e0707005e019000ee01900014
:100800003b0707000001be000800be00f20507001c
:100810001e017800c211dd00c29b20000281410050
:100820000089be001e0078004200dd0001042000a7
:100830008e804000008040001001be000181200039
:100840001e0078004200dd00008040001000be0065
:10085000000051008180590010079800210798007e
:100860001e019000ae019000f0ff27000100200063
:10087000800f5100818f5900090034001e01900043
:10088000ae01900010002000f1ff2f000200400098
:100890008380480010079800210798000f00370058
:1008a0001e019000ae01900010002800f1ff2f0003
:1008b000800f5100818f590008003d001e019000fb
:1008c000ae019000f0ff2f00010020000200400068
:1008d0008380480010079800210798001e009000b0
:1008e000ae009000aa060700d2cc2c00c32c240036
:1008f00016060700100f9800210f9800f22621001d
:1009000033b023001e089000ae0890000f060700c9
:100910001e0178004211dd00020147008204b00090
:100920000089be001e007800c200dd00009b200090
:10093000008040001000be001e099000ae0990002b
:10094000a50507001e017800c211dd00029b2000f2
:10095000028141000089be00c18920001e0078008c
:100960004200dd00008040001002be00c18920006e
:100970001e0078004200dd00008040001000be0034
:100980000001be000400be00d9060700300f980029
:10099000410f9800418a20001e0078004200dd00cf
:1009a000008040001002be00418a20001e00780036
:1009b0004200dd00008040001000be000001be00cb
:1009c0000400be00ca060700500f9800610f98008f
:1009d000818120001e0078004200dd000080400080
:1009e0001004be00018220001e0078004200dd00dd
:1009f000008040001000be00f226210033b023002a
:100a0000bb0607000001be000800be00720507001b
:100a1000700f980001179800018220001e007800d6
:100a20004200dd00008040001000be006011b800f0
:100a30006905070010179800211798001e0078001c
:100a40004200dd00810420008e80400000804000d4
:100a50001000be001e119000ae1190005d05070051
:100a60003017980041179800c18a20001e007800b6
:100a70004200dd00008040001004be0061852000bf
:100a80001e0078004200dd00008040001000be0023
:100a9000f226210033b02300950607000001be00b6
:100aa0000800be004c0507000004be00e2cc2b008d
:100ab000c3d822003e089000ce0890008c060700a4
:100ac0000200200003082400a00507000001be006a
:100ad0000800be00400507000004be00e1852000bc
:100ae0001e0078004200dd00008040001005be00be
:100af000418b20001e0078004200dd000080400095
:100b00001000be00f226210033b023007806070053
:100b10000001be000a00be002f050700e27b230093
:100b20006368230072060700f226210033b0230019
:100b3000860507000001be000800be00260507006c
:100b4000c38a20001e0178004211dd0002814100ad
:100b50000089be00e18520001e0078004200dd0013
:100b6000008040001004be00418b20001e00780071
:100b70004200dd00008040001000be00f22621008f
:100b800033b023005a0607000001be000800be0073
:100b9000110507000004be00120627009320230061
:100ba0003e089000ce089000510607000200200089
:100bb00003002400650507000001be000800be0018
:100bc00005050700e38520001e0178004211dd00c5
:100bd000028141000089be00618520001e0078006e
:100be0004200dd00008040001000be00f22621001f
:100bf00033b823003e0607000004be00e27b23005a
:100c0000636823003e089000ce0890003806070075
:100c10000001be000800be00ef0407000004be0093
:100c2000418b20001e0078004200dd000080400063
:100c30001000be000001be00e7040700e27b2300b5
:100c4000636823002a0607000001be000800be00fa
:100c5000e1040700f226210033b823003b0507001a
:100c6000638520001e0178004211dd0002814100f1
:100c70000089be00e27b2300636823003e089000e9
:100c8000ce0890001a0607000002be00418b20002b
:100c90001e0078004200dd00008040001000be0011
:100ca0000001be000400be00cb040700438b2000ff
:100cb0001e0178004211dd00028141000089be0062
:100cc000e18520001e0078004200dd000080400029
:100cd0001000be003e119000ce11900004060700e7
:100ce0000004be00418b20001e0078004200dd00a1
:100cf000008040001000be005e099000ee099000e8
:100d0000b50407000001be000800be000f05070083
:100d10000001be007e0890008e109000ae04070017
:100d2000700f980001179800418b20001e0078007a
:100d30004200dd00008040001000be003e11900027
:100d4000ce119000ea0507000004be00418b200090
:100d50001e0078004200dd00008040001000be0050
:100d60005e099000ee0990009b0407000001be00a0
:100d70000800be00f50407000001be001e10900030
:100d8000ae109000940407001017980021179800e7
:100d9000c18a20001e0078004200dd000080400073
:100da0001004be00e18520001e0078004200dd0036
:100db000008040001002be00618520001e00780007
:100dc0004200dd00008040001000be000001be00b7
:100dd0000400be00c60507000005be00418b2000d0
:100de0001e0078004200dd00008040001000be00c0
:100df0005e099000ee099000770407000001be0034
:100e00000a00be00d10407000001be000800be00b9
:100e100070040700c38a20001e0178004211dd0023
:100e2000028141000089be00e18520001e0078009b
:100e30004200dd00008040001004be00e18520007b
:100e40001e0078004200dd00008040001002be005d
:100e5000418b20001e0078004200dd000080400031
:100e60001000be000001be000400be00a005070087
:100e70000005be00418b20001e0078004200dd000e
:100e8000008040001000be005e099000ee09900056
:100e9000510407000001be000a00be00ab040700b9
:100ea0000001be000800be004a040700e3852000e0
:100eb0001e0178004211dd00028141000089be0060
:100ec000618520001e0078004200dd0000804000a7
:100ed0001000be000004be0009f0a200418b2000fb
:100ee0001e0078004200dd00008040001005be00ba
:100ef000418b20001e0078004200dd000080400091
:100f00001000be005e099000ee0990003204070058
:100f10000001be000a00be008c0407000200200091
:100f200003f823002b0407000001be000800be00e8
:100f30006f050700638520001e0178004211dd0067
:100f4000028141000089be00418b20001e00780014
:100f50004200dd00008040001000be000004be0022
:100f600009f0a200418b20001e0078004200dd0045
:100f7000008040001005be00418b20001e0078005c
:100f80004200dd00008040001000be005e099000bd
:100f9000ee099000100407000001be000a00be0028
:100fa0006a0407000200200003f823000904070078
:100fb0000001be000800be004d050700438b200065
:100fc0001e0178004211dd00028141000089be004f
:100fd0001e0078004200dd00010420008e804000e9
:100fe000008040001000be00038120001e01780038
:100ff0004211dd00028141000089be008181200094
:101000001e0078004200dd00008040007e09900054
:101010008e1190000288be00018220001e00780020
:101020004200dd00008040001e119000ae119000d3
:101030000288be001e007800c200dd00809c2000f7
:10104000008040001002be001e007800c200dd00db
:10105000009b2000008040001000be000001be0088
:101060000400be00db0307001e0178004211dd0012
:10107000020147008203b0000089be0061862000a3
:101080001e0078004200dd00008040001002be001b
:101090001e0078004200dd00810320008e804000a9
:1010a000008040001000be000001be000400be0031
:1010b0000f050700e38620001e0178004211dd00c5
:1010c000028141000089be001e007800c200dd00e0
:1010d000c09b2000008040001004be0040a3200000
:1010e0001e004000104078000000fb00cf80de00b2
:1010f000a70407000002be00e18620001e00780061
:101100004200dd00008040001000be000001be0073
:101110000400be00f60407000001be000800be0087
:10112000ad030700300798004107980018c0b300ce
:1011300002002000432b24003e009000ce009000cf
:10114000550407000000e00001003d000044eb00f2
:101150000804e0000500320000002000412b2400bc
:1011600030079800410798000f00370018c0b300ff
:1011700002002000432b2c003e009000ce00900087
:10118000430407000000e000010034000044eb00cd
:101190000804e0000400320000002000412b2c0075
:1011a0003007980041079800018220001e00780057
:1011b0004200dd00008040001000be000001be00c3
:1011c0003e009000ce009000820307005017980068
:1011d00061179800018320001e0078004200dd00a6
:1011e000008040001000be005e119000ee119000e3
:1011f00079030700038320001e0178004211dd00ff
:10120000028141000089be00818220001e0078001a
:101210004200dd00008040001000be000001be0062
:101220005e109000ee1090006a030700701798009f
:10123000011f98001e00780080004000c08b200035
:101240000080400010007800cf80de0050040700ce
:101250005e119000ee119000a50407000004be008e
:101260001e00780080004000008c200000804000bc
:1012700010007800cf80de00450407000002be00a9
:10128000018320001e0078004200dd000080400045
:101290001000be000001be000400be009404070060
:1012a0000001be000800be004b0307000004be00a2
:1012b0001e00780080004000408c2000008040002c
:1012c00010007800cf80de00310407007e1190000e
:1012d0008e199000860407000001be000800be00c1
:1012e0003d030700638720001e0178004211dd00e6
:1012f000028141000089be00618720001e00780045
:101300004200dd00008040001001be00121f980066
:10131000231f9800818220001e0078004200dd001b
:10132000008040005e119000ee1190000288be0027
:101330001e0fe8001e007800e10f5000f0fc3400a2
:10134000e84e8000f94e8000404f8000514f8000f1
:101350005e019000ee019000650407000001be00f0
:101360000800be001c0307000004be00a04f800060
:10137000b14f80007e0190008e0990005c04070050
:101380000001be000800be0013030700c04d880026
:10139000d14d8800404f8000514f80000001be00b9
:1013a0000d0307000002be0090428000a1428000b1
:1013b0000001be000400be004d0407000004be0092
:1013c000a04f8000b14f80000200200003042400e1
:1013d000470407005e019000ee01900044040700fe
:1013e0000001be000800be00fb020700204e88007e
:1013f000314e880090a32000104078000004e000e7
:101400002c003200204e8000314e8000a4030700e3
:101410000000780000f0a7000000ea000000e000f3
:101420001f003400204e8000314e80009c030700d6
:101430000000780000f0a7000000ea00cf80de0086
:101440000001be0000352c000100200081030700d0
:10145000301f9800c8a1a800be199000230e880074
:10146000200e8000c00e8800204e8000314e80008b
:1014700018c0b3006011b800870307000000e00047
:1014800001003c000044eb000804e00002003200d0
:10149000cda2a80007003700cda2a90005003700a3
:1014a000c8a1a90000e22400200e8800200e8000c0
:1014b000c00e8800410e8000000220000080600005
:1014c0000000e0000c003a00601680004d00de00d5
:1014d000614060000004a200614060000080fb00e9
:1014e000610060004d00dd006116800001d0a100a8
:1014f0000100700060168800608720001000be00a8
:1015000018c0b30002002400c36124006203070076
:101510000000e00001003d000044eb000804e00092
:10152000050032006287200000002400c161240011
:101530000089be000f003700608720001000be0049
:1015400018c0b30002002400c3612c005003070040
:101550000000e000010034000044eb000804e0005b
:10156000040032006287200000002400c1612c00ca
:101570000089be0060872000b0009000200090002d
:1015800018c0b30002002400c36124004203070016
:101590000000e00001003d000044eb000804e00012
:1015a000060032006287200000002400c161240090
:1015b0002001980031019800110037006087200059
:1015c000b00090002000900018c0b300020024007a
:1015d000c3612c002e0307000000e000010034006e
:1015e0000044eb000804e0000500320062872000a0
:1015f00000002400c1612c002001980031019800f6
:1016000070a32000104078000004e0003f0032008a
:10161000608720001000be0018c0b3000200200048
:10162000a33f24001a0307000000e000010034007b
:101630000044eb000804e0000e0032004e18900059
:10164000de1890001603070000007800e20f40004b
:10165000080035004e189000de18900010030700b7
:1016600000007800e20f500002003c001000200053
:10167000010037000000eb000000e000080032002d
:101680009ac8bf000004e000050032000283200079
:101690006000b8000089be00c482a800cc82a80007
:1016a000608720001000be0018c0b3006011b800b1
:1016b000f90207000000e00001003d000044eb00db
:1016c0000804e00008003200608720001000be001f
:1016d0001403070000007800000c8800c402a80072
:1016e000c422a90009003700608720001000be0056
:1016f000eb0207000000780000f0a7000000ea00fd
:10170000000c8800c402a900c422a80080a3200005
:10171000104078000004e00045003200608720009f
:10172000b00090002000900018c0b300020020001c
:10173000a33f2400d60207000000e00001003400af
:101740000044eb000804e0000e0032006e18900028
:10175000fe189000d202070000007800e20f40005f
:10176000080035006e189000fe189000cc020700ab
:1017700000007800e20f500002003c001000200042
:10178000010037000000eb000000e0000a0032001a
:101790009ac8bf000004e000070032000283200066
:1017a0006000b8002001980031019800c482a800b0
:1017b000cc82a8001e00370060872000b000900097
:1017c0002000900018c0b3006011b800b2020700fa
:1017d0000000e00001003d000044eb000804e000d0
:1017e0000900320060872000b000900020009000c7
:1017f000cc02070000007800300c8800c482a800ea
:10180000cc82a9000a00370060872000b000900059
:1018100020009000a20207000000780000f0a7005e
:101820000000ea00300c8800c482a900cc82a80025
:101830009ac8bf000004e00017003a009042800000
:10184000a1428000f226210033b02300e20107000c
:1018500090428800a14288004e209000de20900037
:10186000e0418800f1418800008220001000be00a5
:101870000042880011428800e04d8000f14d800058
:101880002042880031428800804d8000914d8000c8
:10189000404288005142880094428000a542800066
:1018a000c0418000d141800018c0b3000001be00db
:1018b0000400be00780207000000e00001003c00c8
:1018c0000044eb000804e000050032006000b800ae
:1018d00090428800a142880010c0b3009ae8b70087
:1018e0008760a9000080fa004f05be004f04be00cb
:1018f0004f03be004f02be004f01be004f00be00ae
:101900003600f900004006003600f800809fbe0057
:10191000829fbe00849fbe00869fbe00889fbe003f
:101920008a1f78000000fa00684280007942800037
:1019300046428000574280002442800035428000a9
:101940000242800013428000e0418000f1418000ab
:10195000ea7c2400889fbe00869fbe00849fbe0054
:10196000829fbe00809fbe0040d12a00801f780069
:101970000a007800c1030700f6875700b01007007f
:101980008780a9000080fa004f0578004f04be0050
:101990004f03be004f02be004f01be004f00be000d
:1019a0003600f900004006000000fa008480a9001b
:1019b0000080fa00004006003600f800809fbe005c
:1019c000829fbe00849fbe00869fbe00889fbe008f
:1019d0008a9fbe008c9fbe000000fa00607c24003d
:1019e00010407800e14f4000f3003a00707c240082
:1019f000104078000080fb0031032000810f500070
:101a00003700320031032000810f500006003c00f7
:101a1000f10f50000e00320021022000810f500013
:101a20000e003200d900370041042000810f500021
:101a3000af00320091092000810f5000c200320037
:101a400041032000810f500067003200cf003700b3
:101a500010c0b3000ee8b700d70037009ac8bf0027
:101a60008006fb005c408000b0448000c1448000e0
:101a70000200200003172400560107000005be00e5
:101a8000a04d8000b14d8000020020000312240010
:101a9000500107000004be00804d8000914d800081
:101aa00002002000031224004a010700e27c240007
:101ab0008d1f78008c1f78008a9fbe00889fbe0013
:101ac000809fbe00f0d22a00801f780002007800bc
:101ad0006a030700f287570059100700b600370065
:101ae0009ac8bf000004e0003900320050c8bf00af
:101af0000004e00036003a00807c240010407800aa
:101b00000080fb00c800dd00907c240010407800bd
:101b10000080fb006a004000010070002040880047
:101b2000a07c2400104078000080fb00c800dd008d
:101b3000b07c2400104078000080fb006a00400068
:101b40000100700030408800c07c24001040780004
:101b50000080fb00c800dd00d07c2400104078002d
:101b60000080fb006a0040000100700040408800d7
:101b7000e07c2400104078000080fb00504088008a
:101b80005440800040408000ea0150003040800016
:101b90006a01500020408000ea005000e07c2400f0
:101ba000841f7800831f7800821f7800811f7800cf
:101bb00051d42a00811f780030030700ea875700bc
:101bc0001f10070010c0b30050e8b7007a003700bc
:101bd000e07c2400c200200021d52a00e202070098
:101be00017100700740037009ac8bf000004e00017
:101bf0003900320050c8bf00e14f500036003a00b3
:101c0000807c2400104078000080fb00c800dd00cc
:101c1000907c2400104078000080fb006a004000a7
:101c20000100700020408800a07c24001040780053
:101c30000080fb00c800dd00b07c2400104078006c
:101c40000080fb006a004000010070003040880006
:101c5000c07c2400104078000080fb00c800dd003c
:101c6000d07c2400104078000080fb006a00400017
:101c70000100700040408800e07c240010407800a3
:101c80000080fb00504088005440800040408000ad
:101c9000ea015000304080006a015000204080007e
:101ca000ea005000e07c2400841f7800831f780045
:101cb000821f7800811f780051d42a00811f78008c
:101cc000ee020700ea875700dd0f070010c0b300df
:101cd00050e8b70038003700e07c2400c200200044
:101ce00021d52a00a0020700d50f070032003700d7
:101cf000807c240010407800e14f400007003a004b
:101d0000907c240010407800e14f400003003a002e
:101d1000c0442000900c880027003700807c2400fd
:101d200010407800e14f40001e003a00907c2400f3
:101d3000104078000004e0001c003a00003220004f
:101d4000900c88001c00370050c8bf00e14f5000c5
:101d500018003a005068ef00100020006040880032
:101d600050408000cf80de0089010700a299290041
:101d7000930c2400de0107004901070000007800f1
:101d80000019b000600c88000b003700e07c2400d4
:101d9000c2002000e1d52a0073020700a80f070047
:101da00005003700000000000300370000000000bd
:101db000010037000000000085c0a9000080fa0083
:101dc0004f06be004f05be004f04be004f03be00cd
:101dd0004f02be004f01be004f00be003600f900aa
:101de000004006000000fa008c20a9000080fa00e4
:101df000004006000040da000000fe000a00fa0081
:101e000011002000b1bf9f00c0bf9f006a80570033
:101e1000450b07004fb897000080fa00000006004d
:101e20000a00fa00e20f500034003e002052800009
:101e3000e10f500003003200e20f500011003a00a1
:101e40000c003700032220000300e00001003a00ec
:101e50000040da002002e200020035002822ef00f4
:101e600021e2a8002342ab000d003a002342a80063
:101e70000b003700032320000300e00001003a00bc
:101e80000040da003002e200020035003822ef00a4
:101e900031e2a8003342ab0001003a003342a8000f
:101ea000820178000b0037003102fb00e10f500087
:101eb00004003a002322ab00feff3a002411880000
:101ec000030037003322ab00feff3a00a411880064
:101ed0008301e9000300e000f3ff3a00e10f500046
:101ee00003003a002302ab00feff32000b00370074
:101ef0003302ab00feff3200080037003300200041
:101f0000b3bf9f00c0bf9f00d1bf9f00e2bf9f0033
:101f10006a805700060b07006fb99700020078002f
:101f20000080fa00000006000a00fa0051002000bc
:101f3000b1bf9f00c0bf9f006a805700fe0a070024
:101f40005fb897000080fa0000000600889fbe007e
:101f500080047800305280000000e00004003a0065
:101f60000e0007000084eb000000e00008003500d0
:101f7000385280000900e0000500320009004400ea
:101f8000060007000000e00001003d000084eb00b7
:101f9000080078004f04be000000060080007800b2
:101fa0000100e00003003a000000200030528800e9
:101fb000000005000080eb0002002000828f50002e
:101fc00002003e00315288000000eb0000000600d5
:101fd0000000050003f0a200889fbe008a9fbe009b
:101fe0008c1f78002a010700310133006450e100a2
:101ff0004f0032006420e1005200320003826c0086
:1020000007003b000905d0000306d000820f5400f2
:102010000c065d00020039000200320089017800e0
:10202000030678008582550004003d000003fd0092
:102030008103fd008502ea008b854200840f720057
:1020400002003b0060001000e08018006011b80042
:102050000005eb007a28e1000a003900060078004c
:10206000c75ddd00f707b200878075002d003700df
:10207000828171000a017800610560008180d100d1
:102080000080d3008502e900f9ff3b000604400010
:102090008784480002003b0060041400e0841c00b8
:1020a0000988a300070032008a81710082817100d3
:1020b000610164008904d1000884d3008b05e80025
:1020c000170037000978a30013003a000b00e00066
:1020d000130034008b05e9000804440089844c0097
:1020e0000a4474000978a3000d003a000b00e000d8
:1020f000070034008b05e9000804440089844c0083
:1021000001003a000b0020000978a300f7ff32001d
:102110000001eb0002003700828171000a017800a3
:10212000a00007000cf0a70001f0a000e9003700b4
:102130006420e10002003a00838f6c00e900330064
:102140000801be000200be00e2003700889fbe000a
:102150008a9fbe008c1f7800cd000700d40033009a
:1021600003866c006450e1002e0032006420e10020
:10217000330032006150e1002f0032006120e100a5
:102180003100320085855500eb07b00009002000c2
:1021900008042000050037000804440089844c002e
:1021a0000a0031000603430087834b0000015300ff
:1021b00081815b00f8ff33000203be000800a0002d
:1021c0000804440089844c00f6ff3900c639dd005c
:1021d0008301730001003200130020008904d10044
:1021e0000884d3000998a300050032000800a70066
:1021f0000300a0008904d1000884d3008b05e80007
:102200008904d1000884d3000001eb000281d200d0
:102210006400070001f0a1000cf0a70001f0a0008d
:10222000ac0037006420e100ae0032000801be00bf
:102230000200be00f7ff37006120e100a900320074
:102240006000b800f3ff37000000200001f827000d
:10225000f0ff3700839f68000100e00002003d00ae
:1022600060001000e08018000300e00002003d0064
:1022700060011100e0811900d10007004f00e0006b
:1022800002003b0060001000e08018000000060023
:1022900014002000da003700f4ff2f00d8003700c8
:1022a0000001be00650007000470a70003f0a10054
:1022b0006509b100160032000d0035006828e10004
:1022c00006003500f0ff2f00f1ff27000300e000bb
:1022d00013003b0001002800000005000000400042
:1022e000818048008502e900fcff3a0008003700c1
:1022f000f88f420002003c008000eb000000050067
:102300008100d1000080d3008502e800fcff3a0084
:102310000300e00002003b0060001000e0801800b5
:10232000000006000001be00440007000470a70082
:1023300003f0a10003f8a30013003a006509b100ff
:1023400010003200090035006928e1000200350064
:1023500001002800000005000000400081804800c6
:102360008502e900fcff3a0000000600f88f4200f9
:10237000050035008100d1000080d3008502e8000f
:10238000fcff3a00000006008000eb0000000500a2
:102390004f89de0082017800b40037006011b80078
:1023a000c200370081002000618055000b003d0015
:1023b0000b00200061fe2f000100e1001d00340031
:1023c00082817100610164008904d1000884d30016
:1023d0000000e800faff3a0071002000610064008c
:1023e0000300700002006000090032006104440034
:1023f000e0844c000988a500050032008b05e80048
:102400006808e10002003a008904d1000884d30082
:10241000f20f20000258e10005003d00c75ddd001d
:10242000f907b200898075000800780000000600f6
:102430000bf827008b00780000000500c70ade00bb
:10244000f107b200f50fb20008003200e1cf420000
:10245000020032000170a00024000500810f70000e
:10246000010032000408050044000500810f7000df
:1024700002003a00140005008502e9000000400057
:1024800081c04800fcff3b000170a0002400050053
:102490000004be00e9ff07000003be000405be0003
:1024a0000200be00e5ff0700844f75000000060033
:1024b0000200be006450e100050036006420e10027
:1024c000020036000968a30001003a000800be00bf
:1024d0000160a0004f0678004f05be004f04be000b
:1024e00000000600f0ff2f00f1ff2700f9ff370082
:1024f000889fbe008a9fbe008c1f7800e4ff070003
:10250000ebff330003866c006450e10024003200ce
:102510006420e100270032006150e1002200320017
:102520006120e100210032008b854200eb07b10001
:102530000134b800003ab8000804420089844a0017
:10254000013ab8000030b8008880400009014a0014
:10255000040033000000400081804800020149006f
:102560008b05e900c909dd0083017000010032001c
:1025700013002000c814de004814dd004709de0007
:102580001200b200c808de000884700085ff070052
:1025900001f0a1000cf0a70001f0a000cdff370072
:1025a0006120e100cfff32000801be000200be0042
:1025b000f7ff37006150e100fcff3a00c9ff370028
:1025c0006022b800060220000000d0008180d20006
:1025d0000482d2008582d2000000a00002025200d4
:1025e00083825a00030031000202420083824a00c3
:1025f0000000a1000603e900f3ff3a000000060016
:10260000889fbe008a9fbe00841f7800a0ff07003d
:102610004f00780011003300f0ff2f00838f6c0013
:1026200006003b00040565000a00a700080037000b
:1026300009f0a6001000200008003700820f5400a7
:10264000838f5c00030039001000200001003e0071
:102650000000200009f0a7000000ea004f05be00be
:102660004f04be000000e00000000600881f780054
:10267000030478000300e00007003d006000100044
:10268000e080180060011900e081190002003b00a1
:1026900001f02d00030037000400070008f0a70038
:1026a00001f0a0004f04780000000600889fbe00e3
:1026b0008a9fbe00008270000402710004827100d3
:1026c000260032000004be000200be006011b80007
:1026d0006b092000950220000182cf000a0039001a
:1026e0000541b1000082cf00070039000541b1006b
:1026f0000982cf00040039000541b1000882cf00f3
:10270000010039000541b1000542520012003200bb
:102710000a003b0082817100610164008100d100e8
:102720000080d3008984d3000884d3008b05e8009f
:102730000442e800f7ff3a000700370008044400ad
:1027400089844c0000004800818048008b05e90026
:102750000442e900f9ff3a0012ff07004f05be00ee
:102760004f04be0000000600800178000200370020
:10277000b15978000201e9000200e000fcff3a00d4
:1027800000000600818f2000c2040700800078004e
:102790000080eb000100e00004003500818f200084
:1027a000a0002000080007004f80de0000000600a7
:1027b00080007800010178003104e000fdff3a005c
:1027c0000000510000000600889fbe008a1f7800ac
:1027d0000004be00c900900069009000808f500086
:1027e00005003900090078001d0507008080eb0016
:1027f0000000e00016003500084578004900900010
:1028000008587800c00498001900780000b8a300a8
:1028100004003a0000a8a30007003200ea4f540069
:1028200005003a00090078005f0407008080eb0093
:102830000000e00006003a0000c02000190060001f
:102840000200320049009000e00498008a80fb00fa
:10285000010078004f0578004f04be00000006001c
:10286000881f78000204780008017800beff070086
:10287000080040004f047800000006000000fa0045
:10288000881f780000047800ea8157003fb997005c
:102890008800780000432100070007000000e000e6
:1028a000020035008040eb00017478004f0478008e
:1028b0000080fa00000006006200fa00889fbe0057
:1028c0008a1f7800000578008104780002047800ef
:1028d0008300780080f92f000f0040003c070700bc
:1028e0009a979f00a9979f000000eb00b09f9f0060
:1028f0001885fb008a04fb000a05ea004f55de003c
:1029000050022000808f54000d003200e10f55006e
:102910000b003a000a017800880078002f90970099
:102920009f91970003000100a0979f000000e00026
:102930008e0032003f9897000000e800b09f9f0093
:102940000a04440050022000808f5400040032002a
:102950000900e000e6ff3a003f9897008400370046
:102960000000eb00909f9f00809f9f00f0979f00ca
:10297000e0979f00d0979f00c0979f000700370007
:10298000e1a22000010050000000400021a2200030
:1029900061007800df98970001007000d09f9f00d1
:1029a0008804780009047800384578008a00fb0024
:1029b000e0a22000940407000000e000f0ff3a00cd
:1029c000a1c2b300814f55000e003a00cf88970096
:1029d0000180e900c08f9f0010007800c09f9f0019
:1029e0000000e00005003d000000ea00c09f9f00dd
:1029f0005f9897000020a000d09f9f000904e80086
:102a00000f003700c09f9f000000eb00050037005b
:102a1000f2ff2700820f5000020032006a01b90065
:102a2000028040000904780088047800b900fb00a7
:102a30000103b100e98f5000f5ff3600c09f9f00f1
:102a4000e0c2b300984f1000020032000080eb009b
:102a500019003700a0c2b300d84f100007003a0099
:102a6000cf8897000180e900c08f9f001000780098
:102a7000a09f9f000804e800100037000000eb0052
:102a8000a09f9f008800780005003700f3ff270013
:102a9000830f5000020032006a02b90004004100b6
:102aa00001047800880078003101fb000203b100c6
:102ab000e90f5100f5ff3600a09f9f009844780071
:102ac0008900fb00a0a120004f0407000000e000e7
:102ad000020032000804e800010037008044eb00e7
:102ae000c97f9f0080c6b30080cf540004003a0025
:102af00098cf14000a003a006640500006003700e4
:102b0000c0c6b30080cf540005003a0098cf14002f
:102b100003003a0065404000c07f9f000804e800c1
:102b20001801fb00e3fb2f008f81410081f92f008a
:102b30008f804000a0f92f000f0040001000070018
:102b40000000e00009003a00e1fb2f008f80400008
:102b5000a0f92f000f004000e10507000000e00091
:102b6000020035000804e80061ff37000080eb0038
:102b70004f0578004f04be000080fa0000000600f8
:102b8000889fbe008a1f7800000478008244780085
:102b90000305780070c6b30080cf54001a003c00d3
:102ba00000c0e90080cf5400cd003d006d405000d2
:102bb00080cf5400770032000b003c007140500081
:102bc00080cf540035013c0000c0e90080cf5400a4
:102bd000c3003d0050c2b30080cf54002c0132002e
:102be0007c4040000500370030c6b30080cf540061
:102bf0001a0032001e003c0000c0e90080cf5400e3
:102c000026013a00b6003700f0c6b30080cf54006a
:102c10006000320007003c006640500080cf540046
:102c2000130032006540400080cf54001b013a0081
:102c3000d400370050c7b30080cf54005500320095
:102c40006340400080cf54005200320002c7b300fe
:102c500082cf540011013a00ff0037001181e900d2
:102c60008208780078009000127578001101370012
:102c700028609000c2c6b300824f500007003a009f
:102c80001101780064005100800878001000be0037
:102c90004f89de00820178001400370012c7b300ac
:102ca000824f500003003a00110278006800520081
:102cb00005003700a2c6b300824f500006003a005c
:102cc0009102780068805200800878005001be00b0
:102cd0004000be00050037001180e9008008780040
:102ce00010007800cf80de006109b900009cbe00b2
:102cf0000294be002862900085c6b300854f520042
:102d00000d00320025c6b300854f520004003a0082
:102d10000000fb00cf80de006109b9000800370029
:102d200045c7b300854f520003003200e6c242009f
:102d3000854f520004003a00cf80de006109b900df
:102d4000009cbe000294be003802be002803be00f4
:102d500078009000d1c2b300e00f5200e08f5a001b
:102d6000e00f5b00e08f5b000800350088109000ea
:102d70000118a30002003200b1c2b3000300370003
:102d80000108a3005100320001c2b30001757800b0
:102d90004c00370028609000c2c6b300824f50003c
:102da00008003a001103780064005300800878009e
:102db0001002be006033b8000400be000601be0071
:102dc0001400370012c7b300824f500003003a00ce
:102dd000910278006880520005003700a2c6b30057
:102de000824f500006003a0011037800680053003b
:102df000800878005001be004000be00050037008a
:102e00001180e90080087800100078008000eb0055
:102e10006011b800009cbe000294be0028629000c1
:102e200085c6b300854f52000d00320025c6b300a1
:102e3000854f520004003a000080fb008000eb0048
:102e40006011b8000800370045c7b300854f520035
:102e500003003200e6c24200854f520004003a00ef
:102e60008000eb006011b800009cbe000294be0020
:102e7000081090000038a300140032003800be0093
:102e80002801be00e00f5000e08f5800e00f59000d
:102e9000e08f59000d00320080c7b30080cf54008e
:102ea0000300320080c5b30080cf540007003a0011
:102eb0007800900001c3b300017578000000e800bd
:102ec000097578000000e800700498007800900010
:102ed000000545006a0498008940780069003700c1
:102ee00028619000c0c4b300804f510006003a0032
:102ef0009103780068805300800878005001be007c
:102f00004000be0005003700110178006400510048
:102f1000800878001000be00b2070700009cbe00c9
:102f20000294be00b8009000780090000100e0001c
:102f300002003d00d1c2b3000800370088109000a5
:102f40000118a30002003200b1c2b3000300370031
:102f50000108a3000400320001c2b300017578002b
:102f60000000e8007004980078009000000545001b
:102f70006a0498008900fb000800780053000700ed
:102f80004e00370028619000c3c6b3001180e900ed
:102f9000834f5100240032000a003c00e4c151007c
:102fa000834f51002700320083c1e800834f510056
:102fb0001500320020c6b300804f510020003a00b7
:102fc0000a00370043c7b300834f51001d00320091
:102fd000e6c14100834f51001a00320010c7b30010
:102fe000804f510016003a00060037001180e900ba
:102ff0008008780010007800485c9000084878004d
:103000002e0037001180e900800878001000780059
:10301000680a9000cfa2de00612bb9000498be00c0
:103020000690be0025003700800878001000780068
:1030300068099000cf91de000288be001f003700b3
:103040001180e9008008780010007800680c90007a
:1030500008087800190037001181e900820878001b
:1030600012027800cfa2de00612bb900049cbe00e2
:103070000694be00f8009000010545006a0498001f
:103080008040780008007800660307000b003700d6
:1030900078009000097578000600370078009000ed
:1030a000000545000904e00001003a0059c2b300e0
:1030b000094d78000000e800700498000000eb0063
:1030c0004f0578004f04be00000006002f04b0003a
:1030d000889fbe008a9fbe008c9fbe008e1f780016
:1030e0000007780081f79f003e04be002e05be0059
:1030f0005e0890000000e00002003d00600020003b
:10310000500f98008e00780020fb2f000f00400029
:103110001a030700e20f50000a003a0030002000b6
:10312000100f9800b1c9b3000ff097008140400024
:10313000c0952000e1cf50000d003e00809520009a
:103140000b0037000000e0000f00340030002000ca
:10315000100f9800b1c9b3000ff1970081404100f2
:1031600040962000e1cf500001003e000096200074
:10317000ee009000b0487800b06878001040780009
:1031800090409800f30037000000e00005003a008e
:1031900022fb2f000f014100001978008001eb0095
:1031a000e70037006022b8006033b8000800be00b6
:1031b0000a01be00620607000000e00001003d00b9
:1031c0000bf0a200705927009f9897000088b90063
:1031d000026a2800130020001efc0700640650004d
:1031e0009c9f9f0013003b0063061600c0ff2f004a
:1031f000000666008c01ea00939f9f008d962000d8
:103200000800be000a01be00070037000c08a3003a
:10321000030032003d02be002d03be004007070040
:103220000c86d100e88646000c00e000f7ff3c0069
:10323000180037000c00e00018003200c0ff2f001b
:10324000000666009c9f9f008d9620006000b800dd
:103250000200200003ff2300070037000c08a30032
:10326000030032003d02be002d03be002c07070004
:103270000c86d100e88646000c00e000f7ff3c0019
:103280000002be000203be000800be000a01be002c
:10329000350607000004be000205be00de089000ef
:1032a00060c6b3000ff29700804f52000400320056
:1032b0006000200062c4b300824f520002003a0056
:1032c0009f9a97006a80420081004000f1b79f00fa
:1032d00001037800f30f530002003400370120008f
:1032e000f7b79f0000c3b300c0779f0056fb2f00c5
:1032f0000f0343000e007800a0b79f000607780078
:103300003d0037000800be000a01be00d4060700d9
:103310000006be007fb1970068015100f2b79f0020
:103320004240a9000c003400f90607000002be006c
:103330000203be000800be000a01be006e070700bf
:103340006022b80046782d0077192400f4060700a3
:103350000004be000205be00e80047008e00200009
:103360000802be000a03be00b4b79f00c5b79f00a5
:10337000d6b79f00e7b79f000c01be00010478009c
:103380000c003700a400200005002000c0fd2f0025
:103390000f004000070207006fa89700ffa89700e2
:1033a0000fb197009fb1970005c3b30005644100ba
:1033b0000001be00e00f5100e08f5900030034000f
:1033c0000e07e900e10f4700eeff3a0088007800a1
:1033d0003fb49700cfb497005fb59700efb5970063
:1033e0000200370000c3b300806078000e07e900d8
:1033f000fcff3b00688740007fb397000600e000b9
:10340000070034006022b8006033b8000800be0036
:103410000a01be00cf0507000000e000b9ff3c0034
:103420000e0378002fb7970051fb2f008f804000cc
:10343000010353009f9b970067804300909f9f006c
:10344000020037000603e9000000e90001017800ee
:103450008200780003c3b300b1cf1100f9ff32003e
:10346000909f9f00de09900061c6b3000ff29700a5
:10347000814f52000300320061c4b300814f5200fb
:1034800002003a000000e8000a00370010002000a7
:1034900051c6b3008ff2970081cf52000500320071
:1034a0000540780050c4b2000080fb000000e90035
:1034b0004f00de0083014000868f51000100340080
:1034c000860178000300e0001d00350000c3b30052
:1034d000868f510006003d0062c2790069404000bd
:1034e00041c3b300814f520001003c0069405000cd
:1034f0008300e90081004100010037008401780069
:103500000302e90001037800a142780080cf520055
:10351000faff320091c3b300814f500001003a001e
:10352000054be8000400e00005003d000201e90051
:103530008301e8001f9b97000603e800969f9f0009
:103540008ff397008700fb001f9a97000e0078000a
:10355000060007004f0778004f06be004f05be006b
:103560004f04be002f04b10000000600f0874700a2
:10357000889fbe008a9fbe008c9fbe008e1f780071
:1035800000047800814478000205be00040678003b
:103590000b00e00002003c001b002000eaa320001a
:1035a00060c6b30080cf54000e00320060c4b30088
:1035b00080cf54000b00320070c6b30080cf54009f
:1035c0000300320070c4b30080cf540081003a0081
:1035d000e40f46007f00350058089000800f560029
:1035e0007c003d000c06e80060c6b30080cf5400ac
:1035f0001000320060c4b30080cf54000d003200d0
:10360000081090000038a30004003a005808900009
:10361000808f550001003d005b0c98005808900019
:103620000c005000500c980002003b000000eb0022
:10363000500c980018089000e80090000c00e00082
:1036400026003c0002c3b300827078000000e8004e
:10365000100c9800d80890000100e00003003c0026
:10366000881090000138a30005003200e8009000a7
:10367000e2c2b300827078000000e800100c9800ed
:10368000580890008c00ea00810f500001003d00b6
:103690000006ea008c00ea00210c980000064600b3
:1036a0005c0c98008b0f5600010034000b0678006c
:1036b0003c0c9800e8009000180890000080400042
:1036c0000c0178008a00780027fc07005808900059
:1036d0000c0650004c0c9800900037008c8f550061
:1036e00018003d00008040000b0178008a0078003f
:1036f0001dfc07001808900000804500100c980081
:103700008b0556002b0c9800d80890000100e000b3
:1037100003003c00881090000138a300060032002e
:10372000e8009000e2c2b300827078003808900090
:103730000000e800300c980058089000400c9800f9
:1037400076003700008040000c0178008a00780085
:1037500005fc07001808900000004600100c9800b7
:103760008c855500d80890000100e00003003c0063
:10377000881090000138a30005003200e800900096
:10378000e2c2b300827078000000e800100c9800dc
:1037900058089000808f55000100340080057800a3
:1037a000e800900018089000008040008c00450060
:1037b0000b017800ecfb0700180890000b0040009c
:1037c000100c9800580890008b0550002b0c9800a6
:1037d0005200370018089000e80090009a707800b6
:1037e0000000e800100c9800d80890000100e000ec
:1037f00003003c00881090000138a300050032004f
:10380000e8009000e2c2b300827078000000e80097
:10381000100c9800580890000000e00010003400e0
:103820008b05e900808f5500010034008005780089
:10383000e800900018089000008040008a00e8002e
:103840000b017800c8fb0700180890000b0040002f
:10385000100c9800580890008b0550002b0c980015
:10386000e800900018089000008040000958780097
:103870000007e8000c00e00004003500b1c2b3000e
:10388000014878008e04780004003700d1c2b300ec
:10389000014878008e0478000c06ea007d85570008
:1038a0008006eb0009003700a20020008c007800a1
:1038b00072805700310007007fb097008fb89700e3
:1038c000016d7800000678008d06e8000c00e0002d
:1038d000f5ff3c000d00e00009003a008e0478007e
:1038e00000c3b300805c7800050037008d06e90056
:1038f000fc80570061c07e0002c3b300825c4000c0
:103900000d00e000f9ff3c00e8009000180890006e
:103910000080400080845400390c9800081090000a
:1039200074006000f00f50000e003a0098089000fc
:103930007800900000804000a8089000010040003e
:10394000b808900001004000c80890000100400045
:10395000f8089000810f500002003d0000805000e8
:10396000000c98004f0778004f06be004f05be00c0
:103970004f04be000f01b100000006008002780075
:1039800001037800110009000203d80080017800cb
:10399000830a78000299b90002015300920298004c
:1039a0000500780000000600889fbe008a1f78008e
:1039b000000478000800e0000d003a006894200040
:1039c000700544008004eb00580078000000e0001f
:1039d00004003200f4ff07000000e00001003d0099
:1039e0008084eb008a0f5400f7ff3a00250037006f
:1039f00000002200180060008004eb00210032006b
:103a0000a80490000f0037000901510038409000d1
:103a10000000fb008900780001f907000000e000c9
:103a200007003c00280090004004980060049800c3
:103a3000500c98001890a0008084eb001100370013
:103a40008084440048019000828f5400eeff3900ca
:103a500028009000400498009800780002c02000e0
:103a60000281600001003a003800900001e8a300e4
:103a7000020032006004980001003700500c9800ea
:103a80008004eb00090078004f0578004f04be0069
:103a900000000600889fbe008a9fbe008004780058
:103aa000010478002c003700c800900068009000e6
:103ab000808f50000400390008007800680007007b
:103ac0000000e000370035000040200018006000d2
:103ad00009003200a100200009007800560007000c
:103ae000800578000b00e0000300320061851400bf
:103af0000a85450004003700090078002cfb070008
:103b0000000578008005eb0048009000e800900078
:103b1000808050008a8f500002003100010578003b
:103b20008005eb000a017800890078000efb070091
:103b3000480090000a004000400498000b00e0009c
:103b4000040032000800780097ff07000000e00042
:103b500014003a008a8444001904e000d2ff3a00bd
:103b60000080200018006000060032000800780085
:103b70008dff0700800078000080eb000100e0006e
:103b800009003a0001c02000988060000000eb00ae
:103b90000500320048009000600498000000eb002f
:103ba000010037000080eb004f05be004f04be004f
:103bb00000000600881f78008a9fbe008c9fbe0010
:103bc000000478000205be000406be000401be0029
:103bd0000a00be009ff90700008cbe000c01be0069
:103be0004a0507000005550081855d002a049800fc
:103bf0003b049800080078004f06be004f05be0049
:103c00004f04780000000600020037000304e000c3
:103c1000060032000001780002007800b041780010
:103c200081cf5100f9ff3a00010037000001eb009d
:103c300002007800000006000001eb00000278009e
:103c4000b041780081cf510001003a0004017800b2
:103c50000304e000f9ff3a000200780000000600cb
:103c6000889fbe008a1f780000047800c80090007a
:103c7000680190000000eb00828f50003c0039008a
:103c8000180078002200290002016000e20f5100b4
:103c900007003200012024000000e00001003d0088
:103ca00001202000008c70000080eb003000370005
:103cb0000200260002006000820f500009003a0056
:103cc00038009000808f500006003900080078000e
:103cd00035ff0700800078000080eb000100e00065
:103ce00023003a001805780000c02000000065009d
:103cf00018003a00a804900060022000080040006c
:103d0000808f540013003a00002020005203070067
:103d1000200498000000e00005003a002904980003
:103d2000490498008904e800390498000800370025
:103d30000a60a0000a0c78004004980001202000ce
:103d40008080400031049800400c9800500c98008e
:103d500023020700280090005004980038009000cb
:103d60006004980000002600180c70000000eb00b2
:103d70004f0578004f04be0000000600889fbe007b
:103d800000047800e68440001900d0004500de0001
:103d9000f27f2000820f500010003a00000ceb0070
:103da000990478006f816400200020001b003a0015
:103db000210190000200e00018003a00110190007b
:103dc0000200e00015003a00100020001100e000a1
:103dd0001200320020002000100037000000e00038
:103de00004003a00010078006a0207000000e000c9
:103df00008003c00f20028001901610001fe2300c8
:103e0000810c710021c02f00010c40000080eb00ec
:103e100002003700000ceb000000eb004f04be0076
:103e200000000600fc874700889fbe008a9fbe00f6
:103e30008c9fbe008e1f78000006780080c5b300fe
:103e400080cf50000a0032007740400080cf500001
:103e50000a0032006940400080cf50000b00320061
:103e600090a0200080bf9f00ae0020000a00370015
:103e7000829f200082bf9f000600370093a0200091
:103e800083bf9f008e0020000300370094a0200015
:103e900084bf9f000e0120003c02be002c03be0028
:103ea0000605be000404be0040c6b30080cf50002b
:103eb000030032006540400080cf50000b003a0004
:103ec000e00f5200e08f5a00e00f5b00e08f5b00d4
:103ed00006003d006000b8006011b8000404500006
:103ee000858458000605590087855900e80f57005a
:103ef0000400320040002000f00f570038003a0064
:103f00000100370030002000e00f5400e08f5c001b
:103f1000e00f5d00e08f5d0004003a00dc089000d7
:103f20008d0120000100e000060032008e00e90053
:103f3000888060008fba9700e5c07800f1ef9f009d
:103f40007d012000800078008100e9000500330039
:103f50008b05d1000a85d3008984d3000884d3005f
:103f6000f9ff3700089ebe000a96be001200370017
:103f70008d06e9008e00e900848060000fb997008b
:103f8000e2c1780082fd2f000f01410003f17e00a5
:103f9000800078008100e900050033008783d100ac
:103fa0000683d3008582d3000482d300f9ff370053
:103fb000049ebe000696be003c02be002c03be005e
:103fc000e00f5200e08f5a00e00f5b00e08f5b00d3
:103fd0008b0034000d00e000e5ff3c008800370056
:103fe0002c60900081c6b300814f50000b0032005e
:103ff00006003c000004e00008003200e6c050006b
:10400000814f50004e003a0004003700c1c6b30093
:10401000814f50004a003a00210037000800e000bc
:1040200004003a005c0890008d0120000000e000d0
:1040300006003200110009000e84d8000fb9970065
:10404000e2c07800f1ef9f007d012000110009001f
:104050000e84d8000a003700110009000e04d800b1
:104060008d06e9000e81b900020454008fb8970054
:1040700061417c0081fd2f008f80400082f07e0036
:10408000000478000800e000020032000d00e000ab
:10409000f1ff3c00cfc4de00614db90025003700c0
:1040a000e00f5400e08f5c0004003a005c089000d0
:1040b0008d0120000000e000070032006171b900ae
:1040c0000800be000e0407008fb99700e341780096
:1040d000f3ef9f007d0120006171b9000800be0070
:1040e00037f907000b0037006171b9000800be0006
:1040f00058f807008d06e90000f1b90002045400e9
:104100000fba9700e4427c0084fd2f000f024200aa
:1041100005f27e000004be00e00f5000e08f580062
:10412000020032000d00e000efff3c004fcdde004a
:104130008a057800089ebe000a96be00300037004f
:10414000e00f5400e08f5c00e00f5d00e08f5d0049
:1041500004003a005c0890008d0120000000e0009f
:10416000090032006172b900612bb9000800be007d
:104170000a01be008b0407000fba97006442780062
:10418000f4ef9f007d0120006172b900612bb9003e
:104190000800be000a01be007b0407000d003700c6
:1041a0006172b900612bb9000800be000a01be00af
:1041b000800407008d06e90000f2b90004045400f1
:1041c0008fba970065427c0085fd2f008f824200e8
:1041d00084f27e00009ebe000296be003c04be003b
:1041e0002c05be00e00f5400e08f5c00e00f5d0086
:1041f000e08f5d00020034000d00e000e8ff3c00ad
:10420000e80f570010003a000c1090000038a3008f
:104210000d003200f78f560006003e0085fd2f008e
:104220008f824200e5c07e0000c3b30080cf500003
:10423000050032008d06e90002c3b30081fd2f00a6
:104240008f80400082f07e0078811600120e980068
:104250006c00900083fd2f008f8141008d80410014
:1042600041f907001c089000dc089000810f500005
:1042700006003d0000805000000e98000c109000d9
:104280000040a100001698000f0037000100e00078
:104290000d003d008c109000f4806000f08f500005
:1042a00009003a007c099000fc0090008100510058
:1042b0000c09900082805000008050004240a9000c
:1042c00001003400000e98004f0778004f06be0032
:1042d0004f05be004f04be00cf01b1000000060034
:1042e0000400fa00889fbe008a9fbe008c1f7800e1
:1042f0000004780001067800f80d90007800900026
:1043000080855500080890008085550018089000a9
:104310008085550028089000808555003808900059
:1043200080855500480890008085550000022200d5
:1043300090bf9f0000032300a0bf9f0008109000c3
:104340000028a30015003a000b00e0001300340021
:104350000b0578008a047800e20f55000100360052
:1043600029002000c801900009017800ee80570064
:104370005800900003000100500498000000e00085
:104380008c0032006808900009004000600c980022
:10439000090555004240a900eeff3c00780190005d
:1043a0000200e0000c003400c80190008c0078008e
:1043b0005800900003000100500498008080eb003a
:1043c0000000e0007c003200e808900078009000d7
:1043d00000804000600c9800880c90000900e0000c
:1043e0001100340009057800e28f54000100360006
:1043f0002a002000c80190000a017800ec805700d4
:104400005800900003000100500498000000e000f4
:1044100068003200680890000a004000600c9800b4
:104420008a845400edff3700180990000200e00074
:104430000c003400c8019000e80090005800900083
:1044400003000100500498008080eb000000e000b1
:1044500059003200e80890001808900000804000e1
:10446000600c9800a80c90000900e00011003400d6
:1044700009057800e28f5400010036002a00200070
:10448000c80190000a017800ec80570058009000a5
:1044900003000100500498000000e00045003200d5
:1044a000680890000a004000600c98008a8454005c
:1044b000edff3700380990000200e0000e003400e4
:1044c000e80090001808900080804000c80190002b
:1044d0005800900003000100500498008080eb0019
:1044e0000000e00034003200e80890003808900036
:1044f00000804000600c9800c80c90000900e000ab
:104500001100340009057800e28f540001003600e4
:104510002a002000c80190000a017800ec805700b2
:104520005800900003000100500498000000e000d3
:1045300020003200680890000a004000600c9800db
:104540008a845400edff3700081090008000eb00d3
:104550000028a300180032000b00e0001600340011
:104560008b04780009057800e28f540001003600c2
:104570002a002000c80190000a017800ee80570050
:104580005800900003000100500498000000e00073
:1045900008003200680890000a004000600c980093
:1045a0008a8454004240a900eeff3c008000eb00ea
:1045b000010037008080eb00010078004f06780092
:1045c0004f05be004f04be000080fa000000060048
:1045d0000108780000000600203922006100370041
:1045e000881f780008a420001804e00003003a00a7
:1045f000f9ff070020c0b300004c78004f0478009a
:1046000000000600889fbe000004780008007800c3
:10461000e5fc07008004780000042000180060001a
:104620000200320028009000a60007000000eb0006
:1046300020049800384090000004e0000500350098
:104640000000fb00edf507000000e0000100320073
:104650008084eb00181090000000e0000800320099
:1046600031f607000000e000010032008084eb001a
:1046700018109000930007000000eb001014980041
:104680000008200018006000150032000001eb0057
:104690006000b800839420000202d00063027a0018
:1046a000880f520005003a00000040008180480059
:1046b000008041000008eb00060037006100400068
:1046c000e08048000201e800e80f5000e08f580049
:1046d000f0ff3a00080078007a0007000e0037006b
:1046e000000c780000c0eb0030449800600220000d
:1046f00008004000200498004004980050049800ee
:10470000400c980060049800500c980070049800c9
:1047100076004400000c9800090078004f04be00a9
:1047200000000600881f78000004eb006140b8001c
:10473000e2ff2f00f3ff2f007402070062952000b4
:10474000620078000000e00001003200adff0700c9
:104750000804e800e80f5400f4ff3a004f04780022
:1047600000000600010020000100e0000800320007
:10477000010080000100e000050032008100e90036
:10478000010088008100d0000200800000b17800a4
:1047900000000600e6004000110178000500280036
:1047a000850261006f01610082087800020032001a
:1047b0001200200011003700a0019000120020001c
:1047c0000300e0000d003a00900190000300e000bb
:1047d0000a003a001000e00008003a0036003700f6
:1047e000640340009608780080017800530b78003d
:1047f00090097800040878007001510011027800d7
:104800000400e000f6ff32001300370064024000ad
:10481000140378004f33de00838141008308730066
:1048200080017800d3037800cf3bde0014037800ca
:1048300006034300068a7300130278000402420054
:10484000100378004f33de00860972009001780073
:10485000038841000201e90091017800ef8f5100c7
:10486000eaff36001000370080017800530378001b
:104870004f33dd001002d1000408730064024000d1
:1048800094037800cf3bdd001303d10086897300c9
:10489000110378004f33dd009401d100030a730047
:1048a0009108d1000201e80091017800ff8f5100ca
:1048b000edff3e00ef8861009188720002007800f1
:1048c000000006000000e0002f003200c001780068
:1048d000e38f51002c0036000308a3002a003a00a1
:1048e000e15180000100e00002003200810f500021
:1048f0000400310011009800e051880016003700d4
:1049000082007800110190000200e00002003200f5
:10491000800f5100faff39001102780084824000b4
:10492000850f500018003900808f520003003a00b4
:104930008308420001007800070037000200e00011
:104940000300320083014000830f51000e00390044
:104950001200980090009800900090000100e00084
:104960000900320010014000828f500006003a001a
:10497000a2a320000009eb001001780011084100fb
:10498000910090001100980000000600889fbe0072
:1049900000047800d15180000100e00002003200e4
:1049a000010078000d003700e1518000c0a3200015
:1049b00004003700910f5400250036000180e80004
:1049c000910090000100e000faff3a00100037006b
:1049d000920f54001e0036000280e800100178009b
:1049e0000200e000faff3a0011017800e151800076
:1049f000c0a3200004003700910f540014003600bb
:104a00000180e80091009000828f5000faff3a0088
:104a100019528000888f540001003100880478000a
:104a200009007800360007000000e00004003a00aa
:104a3000888f5400050032008904d100f5ff37004b
:104a4000091878009fff0700d2ff37000000eb0035
:104a50004f04be0000000600881f78006304400079
:104a60000800a1008000eb00800f540021003600f8
:104a7000e30f540001003e004800200008007800c9
:104a8000c2ff07008000eb000000e00019003200c8
:104a9000900078009101780064815100880f5100e6
:104aa0000300310011019000020878000700370070
:104ab00008814000020878009101900013019800dd
:104ac000100178001109140088087800100178009e
:104ad0000000eb000200e0000400320092019000b0
:104ae0000300e000010032000280e800d05188009d
:104af0008180e800010078004f0478000000060083
:104b0000800078000000eb000100e00005003400a8
:104b1000010078000df50700e10f400001003a00a8
:104b20000000eb000000060000c0da0000000600f4
:104b300000c0da000000060000c0da000000060035
:104b40008f1fd100f80207008f87e9000000e00006
:104b500000000600809feb00f30207008f87e9004a
:104b60000000e000000006002800fa00889fbe0058
:104b70008a9fbe008c9fbe0003866b0080000700ea
:104b80006400e100440032006408e1004a003200a1
:104b90006100e100460032006108e1004900320096
:104ba000ec0647006000b8003d02be003d03be00b9
:104bb000f48657006011b8003d04be003d05be00fc
:104bc0007d0320000b0037000000a0008d06e900e7
:104bd000130032000402420085824a0006034b00a3
:104be00087834b000000400081804800020149009b
:104bf000838149000802520089825a000a035b003f
:104c00008b835b00f0ff3b000802420089824a0070
:104c10000a034b008b834b008d06e900edff3a0041
:104c20008482720086827200f707b2008782720067
:104c300001003200150020001e0490003e0b900081
:104c400006035400e63fb0000368a30007003200eb
:104c50000000a7000500a0008301d1000281d3005d
:104c60008180d3000080d3000603e8008301d100d7
:104c70000281d3008180d3000080d3000002eb00ca
:104c80000482d2001200070003f0a1000cf0a7007c
:104c900003f0a0004e003700640247006408e10002
:104ca000480032003400be003401be00f6ff370079
:104cb0006108e100430032006011b8006000b800f4
:104cc000f1ff370003ff270002002000fbff370041
:104cd0001800200057002000080453000d003d007c
:104ce0000600200097fc2f000740e1001e00340062
:104cf00084827200610260008301d1000281d300ce
:104d00008180d3000080d3000804e800f8ff3a0057
:104d1000470020006104600005047400040464007e
:104d20000d00320061004000e08048006001490051
:104d3000e081490003b8a500070032000603e8003f
:104d40006538e10004003a008301d1000281d300fc
:104d50008180d3000080d300f87f20000830e1007c
:104d600003003500080378006000b8006011b80047
:104d70004433dd00f300b20083017300000006003d
:104d8000680447000294be000094be00fc04470083
:104d90008694be008494be0009007800ab02070030
:104da00008007800a902070099007800814f700080
:104db0000b003b000800be00840207004f00b1005a
:104dc00003003700f3ff2700f2ff2f006110b90046
:104dd0004f06be004f05be004f04be000080fa0023
:104de000000006008103780094f507000001be0072
:104df0006000b8000478a30013003a006220e100cc
:104e000015003e000d0039008301d1000281d3005e
:104e10008180d3008301d1000281d3008180d3003f
:104e20008301d1000281d3008180d3000538b00016
:104e3000c42add00f300b2008381720007f0a700ee
:104e400003f0a00000000600f3ff2700f2ff2f0090
:104e50006110b900fbff370003ff2700f7ff3700a1
:104e60001400fa00889fbe008a9fbe008c9fbe007f
:104e70000004be000205be00680047000a90be00a4
:104e80000890be00710207000070a7000bf0a1009f
:104e9000304320009e02900080825200b0fe2f001e
:104ea0000028e10011003d00b0fc2f000028e100c7
:104eb000150034001e0990008e0890007e009000be
:104ec0000501b0000201d1008180d3000080d30031
:104ed0008502e800fbff3a000b00e000bcff3b004e
:104ee00060001000e0801800b9ff3700f0ff2f00cd
:104ef000f1ff27000b00e000b5ff3b000100280098
:104f000000002000b2ff37006000b800b0ff37009b
:104f10004f89de0082017800730237000000000034
:104f20002800fa00889fbe008a9fbe008c9fbe00aa
:104f300003866b0092ff07000028a30064003a007c
:104f40000128a30067003a000008a30062003a00ad
:104f50000108a30065003a001e009000be08900002
:104f600081064000ed3fb100f4805700ee01900053
:104f7000111ab8008e099000311bb8009e099000ec
:104f8000311cb800511db800f485570046000700d9
:104f9000fe0190003a0007008b85e8003e00070004
:104fa0008e09900040000700ee01900034000700d9
:104fb0008b85e800380007008e099000400007004c
:104fc0009e0990001b18b800890440000a8548001b
:104fd000fe019000340007008b85e80038000700d0
:104fe000ee019000300007008e0990001b18b800f9
:104ff000890440000a8548000a98a30008003a0086
:105000000402420085824a0006034b0087834b005e
:1050100008044c0089844c000a054d008d06e90007
:1050200084827200850273004c3add0085027200b2
:105030000100320015002000443ade001400b200e6
:105040004538de00cb45dd000b007000c540de00ba
:10505000cb4ddd008b8070004549de00cb55dd0077
:105060000b017100c551de000d03780018ff070029
:1050700003f0a1000cf0a70003f0a00054ff3700dc
:105080001b18b8008502400006834800e0834b00ef
:1050900060044c00070037001b18b80006034000ee
:1050a00087834800faff37001b18b80087034000c9
:1050b00008844800e0844c0060054d0000000600b4
:1050c0001b18b8000804400089844800faff370024
:1050d0000108a3003bff3a005800be005801be0083
:1050e000e3ff37000008a30036ff3a000904780008
:1050f000f9ff37000000000007f0a2000c013700a4
:105100002ff507000400be0000000600020ab900e7
:10511000001bb9000200b80081004200810043007a
:1051200000000600889fbe008a9fbe003004420037
:10513000b0844a0030054b0090854b006000b10000
:105140000898be000a90be000440e10005c8e100d6
:1051500006d0e10007d8e1000200310068004000fd
:105160001008e8004f05be004f04be000000060016
:10517000889fbe008a9fbe003004be002005be008e
:105180000418540005985c0006185d0007985d003f
:10519000110020000440e10005c8e10006d0e10054
:1051a00007d8e100010039008000eb0010881000f2
:1051b0004f05be004f04be00000006001200fa00ba
:1051c000889fbe008a9fbe008c9fbe00e0b79f00f4
:1051d000f1b79f0082bf9f0093bf9f000605be00ee
:1051e0000404be000000eb00d0b79f00c0b79f00d2
:1051f000b0b79f00a0b79f0090b79f000006eb00dc
:105200005fb19700cfb09700820141003fb0970097
:105210000200e00004003d00370007007e805700d8
:10522000c0ff070003003700330007007e805700ef
:10523000cfff0700dfb697000d00e0000c0035003f
:105240006fb29700ffb297000fbb97009fbb97000c
:1052500010002000010020006011b8000002720060
:105260008182720002037300838373001b000700b6
:105270000c06e80001042000810f5600e0ff3a0010
:105280000d00e00004003d000802be000a03be005d
:105290007e805700a3ff07005fa897000000e00092
:1052a00005003a001fb29700afb297003fb39700d6
:1052b000cfb39700090007006fb09700ffb09700c9
:1052c0000fb997009fb997004f06be004f05be006b
:1052d0004f04be000080fa00000006000100070035
:1052e00000000600a4b79f00b5b79f00c6b79f0097
:1052f000d7b79f00000006004f09de0082817100d1
:10530000b3b79f004f01de008180400082807000b3
:10531000a1b79f008fb097004f09de00000040004a
:105320000200700090b79f007fa897004f01de0039
:10533000818040008280700081b79f000d000700cf
:105340004f3ade000000400004007000f0af9f0004
:10535000080007000402420085824a0006034b0051
:1053600087834b00dfff07000802be000a03be0070
:10537000000006002fb29700bfb297004fb397000e
:10538000dfb3970000000600881f78001800200097
:10539000881f780089ff07008f87e9004f04780095
:1053a00000000600801feb0084ff07008f87e900e4
:1053b00000000600889fbe008a9fbe00e00f5000dc
:1053c000e08f5800e00f5900e08f59000c003d00bd
:1053d0006044b8006055b8000000540081805c0053
:1053e00002015d0083815d001800200015000700a8
:1053f00008003d00180007000004eb00050037001e
:105400000004eb000f00070002003d00120007003f
:1054100018002000dcff07000800e0000600320052
:105420006022b8006033b8000000520081805a004a
:1054300002015b0083815b004f05be004f04be008c
:1054400000000600e00f5200e08f5a00e00f5b0002
:10545000e08f5b00000006006044b8006055b800b3
:105460000402540085825c0006035d0087835d00b2
:1054700000000600889fbe008a9fbe008c1f780037
:10548000e00f5000e08f5800e00f5900e08f590006
:105490000d003d006044b8006055b80000005400a5
:1054a00081805c0002015d0083815d001c002000a2
:1054b0000820e10009a8e1000ab0e1000bb8e10012
:1054c0000d003d00080037000006eb00e00f520021
:1054d000e08f5a00e00f5b00e08f5b0006003d00ac
:1054e0006044b8006055b8000402540085825c0036
:1054f00006035d0087835d00aaff07000c00e00043
:10550000060032006022b8006033b800000052008c
:1055100081805a0002015b0083815b004f067800a6
:105520004f05be004f04be00000006000000000052
:105530002800fa00889fbe008a9fbe008c9fbe0094
:1055400007067800878669000c003b00030478009a
:105550008704780008f0a10009f0a100840f500032
:10556000858f5800860f5900890f5c0003003300b7
:105570000cf0a20001003a000cf0a10000fe0700b0
:105580006400e1005f003200780147006408e10038
:10559000610032006c014700748557003200be0084
:1055a0001201be003a04be001a05be001e039000a0
:1055b000be0a90008503530006003d000004fd0074
:1055c0008104fd000205fd008305fd008703ea005c
