:020000040000fa
:080000000002040000000000f2
:020000040000fa
:04000800800500006f
:020000040000fa
:04000c00800500006b
:020000040000fa
:040010008005000067
:020000040000fa
:040014008005000063
:020000040000fa
:04001800800500005f
:020000040000fa
:04001c00800500005b
:020000040000fa
:040020008005000057
:020000040000fa
:040024008005000053
:020000040000fa
:04002800d002000002
:020000040000fa
:04002c00800500004b
:020000040000fa
:040030008005000047
:020000040000fa
:0400340010030000b5
:020000040000fa
:04003800800500003f
:020000040000fa
:04003c00800500003b
:020000040000fa
:040040008005000037
:020000040000fa
:040044008005000033
:020000040000fa
:04004800800500002f
:020000040000fa
:04004c00800500002b
:020000040000fa
:040050008005000027
:020000040000fa
:04005400240500007f
:020000040000fa
:04005800b8040000e8
:020000040000fa
:04005c00800500001b
:020000040000fa
:040060008005000017
:020000040000fa
:040064008005000013
:020000040000fa
:04006800800500000f
:020000040000fa
:04006c00800500000b
:020000040000fa
:040070008005000007
:020000040000fa
:040074008005000003
:020000040000fa
:04007800e80200009a
:020000040000fa
:04007c0080050000fb
:020000040000fa
:0400800080050000f7
:020000040000fa
:0400840080050000f3
:020000040000fa
:0400880080050000ef
:020000040000fa
:04008c0080050000eb
:020000040000fa
:0400900080050000e7
:020000040000fa
:04009400a0040000c4
:020000040000fa
:04009800a8040000b8
:020000040000fa
:04009c00fc02000062
:020000040000fa
:0400a00080050000d7
:020000040000fa
:0400a40080050000d3
:020000040000fa
:0400a80080050000cf
:020000040000fa
:0400ac0080050000cb
:020000040000fa
:0400b00080050000c7
:020000040000fa
:0400b40080050000c3
:020000040000fa
:0400b80080050000bf
:020000040000fa
:0400bc0080050000bb
:020000040000fa
:0400c00080050000b7
:020000040000fa
:0400c40080050000b3
:020000040000fa
:0400c80080050000af
:020000040000fa
:0400cc0080050000ab
:020000040000fa
:0400d00080050000a7
:020000040000fa
:0400d40080050000a3
:020000040000fa
:0400d800800500009f
:020000040000fa
:0400dc00800500009b
:020000040000fa
:0400e0008005000097
:020000040000fa
:0400e4008005000093
:020000040000fa
:0400e800800500008f
:020000040000fa
:0400ec00800500008b
:020000040000fa
:0400f0008005000087
:020000040000fa
:0400f4008005000083
:020000040000fa
:0400f800800500007f
:020000040000fa
:0400fc00800500007b
:020000040000fa
:040100008005000076
:020000040000fa
:040104008005000072
:020000040000fa
:04010800800500006e
:020000040000fa
:04010c00800500006a
:020000040000fa
:040110008005000066
:020000040000fa
:040114008005000062
:020000040000fa
:04011800800500005e
:020000040000fa
:04011c00800500005a
:020000040000fa
:040120008005000056
:020000040000fa
:040124008005000052
:020000040000fa
:04012800800500004e
:020000040000fa
:04012c006a05000060
:020000040000fa
:040130008005000046
:020000040000fa
:040134008005000042
:020000040000fa
:04013800800500003e
:020000040000fa
:04013c00800500003a
:020000040000fa
:040140008005000036
:020000040000fa
:040144008005000032
:020000040000fa
:04014800800500002e
:020000040000fa
:04014c00800500002a
:020000040000fa
:040150008005000026
:020000040000fa
:040154008005000022
:020000040000fa
:04015800800500001e
:020000040000fa
:04015c00800500001a
:020000040000fa
:040160008005000016
:020000040000fa
:040164008005000012
:020000040000fa
:04020800800500006d
:020000040000fa
:04020c008005000069
:020000040000fa
:040210008005000065
:020000040000fa
:040214008005000061
:020000040000fa
:04021800800500005d
:020000040000fa
:04021c008005000059
:020000040000fa
:040220008005000055
:020000040000fa
:040224008005000051
:020000040000fa
:04022800800500004d
:020000040000fa
:04022c008005000049
:020000040000fa
:040230008005000045
:020000040000fa
:040234008005000041
:020000040000fa
:04023800800500003d
:020000040000fa
:04023c008005000039
:020000040000fa
:040240008005000035
:020000040000fa
:040244008005000031
:020000040000fa
:04024800800500002d
:020000040000fa
:04024c008005000029
:020000040000fa
:040250008005000025
:020000040000fa
:040254008005000021
:020000040000fa
:04025800800500001d
:020000040000fa
:04025c008005000019
:020000040000fa
:040260008005000015
:020000040000fa
:040264008005000011
:020000040000fa
:04026800800500000d
:020000040000fa
:04026c008005000009
:020000040000fa
:040270008005000005
:020000040000fa
:040274008005000001
:020000040000fa
:0402780080050000fd
:020000040000fa
:04027c0080050000f9
:020000040000fa
:0402800080050000f5
:020000040000fa
:0402840080050000f1
:020000040000fa
:0402880080050000ed
:020000040000fa
:04028c0080050000e9
:020000040000fa
:0402900080050000e5
:020000040000fa
:0402940080050000e1
:020000040000fa
:0402980080050000dd
:020000040000fa
:04029c0080050000d9
:020000040000fa
:0402a00080050000d5
:020000040000fa
:0402a40080050000d1
:020000040000fa
:0402a80080050000cd
:020000040000fa
:0402ac0080050000c9
:020000040000fa
:0402b00080050000c5
:020000040000fa
:0402b40080050000c1
:020000040000fa
:0402b80080050000bd
:020000040000fa
:0402bc0080050000b9
:020000040000fa
:0402c00080050000b5
:020000040000fa
:0402c40080050000b1
:020000040000fa
:0402c80080050000ad
:020000040000fa
:0402cc0080050000a9
:020000040000fa
:0402d00080050000a5
:020000040000fa
:0402d40080050000a1
:020000040000fa
:0402d800800500009d
:020000040000fa
:0402dc008005000099
:020000040000fa
:0402e0008005000095
:020000040000fa
:0402e4008005000091
:020000040000fa
:0402e800800500008d
:020000040000fa
:0402ec008005000089
:020000040000fa
:0402f0008005000085
:020000040000fa
:0402f4008005000081
:020000040000fa
:0402f800800500007d
:020000040000fa
:0402fc008005000079
:020000040000fa
:040300008005000074
:020000040000fa
:040304008005000070
:020000040000fa
:04030800800500006c
:020000040000fa
:04030c008005000068
:020000040000fa
:040310008005000064
:020000040000fa
:040314008005000060
:020000040000fa
:04031800800500005c
:020000040000fa
:04031c008005000058
:020000040000fa
:040320008005000054
:020000040000fa
:040324008005000050
:020000040000fa
:04032800800500004c
:020000040000fa
:04032c008005000048
:020000040000fa
:040330008005000044
:020000040000fa
:040334008005000040
:020000040000fa
:04033800800500003c
:020000040000fa
:04033c008005000038
:020000040000fa
:040340008005000034
:020000040000fa
:040344008005000030
:020000040000fa
:04034800800500002c
:020000040000fa
:04034c008005000028
:020000040000fa
:040350008005000024
:020000040000fa
:040354008005000020
:020000040000fa
:04035800800500001c
:020000040000fa
:04035c008005000018
:020000040000fa
:040360008005000014
:020000040000fa
:040364008005000010
:020000040000fa
:10040000cf8e20000e7f24000e0188000000000027
:10041000000020000000e000020032000001200087
:100420002002880014000700f90107000000e00026
:1004300003003a00e04c21000100200002003700d8
:100440000000200001002000810f70000100320038
:1004500014000700000020000000e000020032004d
:100460000000020000000000ba10020000000000be
:100470000040da000000fe004440a900c002200055
:100480000000e0000300320000002000a00188000e
:100490004440a800000006008a1f78008b1f7800e7
:1004a0000000060091018800800478000000eb0045
:1004b0001a003700e284440032a0b4009905ba0063
:1004c000e284440032a0b4009906ba00e2844400f9
:1004d00032a0b4000006eb00476fde00fd07b2005b
:1004e000636ce10003003a00ebff07000000eb0043
:1004f0000a003700606ce10004003a00005deb0088
:100500008b05e900fdff3e00040037006168e10053
:10051000010032000086eb000b00070019c7ba008b
:100520001905ba000e04e00003003a000a00e000da
:10053000e0ff3a0000000600fe07b2009e018800be
:100540008a047800f5ff3700395dba008b05e900b1
:100550000c003200295dba008b05e900080032006a
:100560000c00e00003003a00e284440032a0b40032
:10057000f5ff370019ddba008b05e900faff3a00f4
:100580008904e800e184440032a0b40000000600c1
:10059000000000000000000000000000000000005b
:1005a000801f78000000fa00c402a900c422a9003c
:1005b000c482a900cc82a90010c0b30000e8b70033
:1005c0008400a9000080fa004f0078000040060077
:1005d000801f78000000fa0001c8bf000004e0009e
:1005e000010032000168ef008680a9000080fa0057
:1005f0004f00780000400600801f78000000fa00dd
:1006000002c8bf000004e000010032000268ef00f1
:1006100087a0a9000080fa004f0078000040060083
:10062000809fbe00829fbe00841f78001800fa00e1
:10063000a2418000b3418000200f80008000eb00c9
:100640000000510081805900400798005107980030
:10065000c2418000d3418000a00f80008000eb00e9
:1006600000005100818059006007980071079800d0
:1006700020408000314080004e019000de0190005b
:100680000000510081805900000f9800110f980060
:1006900040408000514080006e019000fe019000bb
:1006a0000000510081805900200f9800310f980000
:1006b0005e0090006900b900000178004e009000d3
:1006c0006000b9000000780000014100ce009000f9
:1006d000900020000008b80001014100820078006d
:1006e0000e0990009e09900002014100838149009b
:1006f000021f4000039748007e0090006e00b90082
:1007000000007800ee0090006009b90082007800d7
:10071000010040006e019000e10020000111b800ce
:1007200003004000800178003e0890006500b90099
:10073000000278002e0890006000b90000007800e8
:1007400000024200ae089000500020000008b800ef
:1007500001024200840078000200400083804800cb
:100760002007980031079800a01124000100200004
:100770001e01be00800f5100818f5900040034001b
:10078000b011240001002000008fbe0009003700d6
:1007900060ee2b00f1ff2f001e01be00800f510004
:1007a000818f590003003d00b0112400010020009a
:1007b000008fbe002e019000be019000a011240009
:1007c00001002000800f5100818f59000500340086
:1007d000b011240001002000200798003107980084
:1007e0000b0037002e019000be01900060ee2b0040
:1007f000f1ff2f00800f5100818f590004003d0050
:10080000b011240001002000200798003107980053
:100810001e00780000f0a7000000ea00000c88002d
:100820002e00900000f0a7000000ea00300c8800c5
:10083000ce009000e0fc2f00808f500009003500b2
:10084000ce00900020032000808f500005003c0067
:10085000c402a800c422a80010c0b30030e8b7004a
:100860000e003700200f80006101b800a041800019
:10087000b1418000800f5100818f590004003d007c
:10088000c402a800c422a9003068ef0003003700aa
:10089000c402a900c422a8003068ef00ee00900056
:1008a000e0fc2f00808f500009003500ee00900022
:1008b00020032000808f500005003c00c482a80067
:1008c000cc82a80010c0b30031e8b7000e0037009a
:1008d000a00f80006101b800c0418000d1418000bc
:1008e000800f5100818f590004003d00c482a80090
:1008f000cc82a9003168ef0003003700c482a90050
:10090000cc82a8003168ef004e019000de0190001b
:1009100022408800334088006e019000fe01900064
:1009200042408800534088008460a9000080fa009b
:100930004f0278004f01be004f00be00004006008d
:100940000000fa008760a9000080fa00004006005d
:10095000801f78000000fa0010c0b30032e8b70032
:100960008780a9000080fa004f0078000040060050
:10097000809fbe000000fa00514680004046800083
:10098000808f500010003a00614680000010200067
:10099000008060000000e0000b003a000000000052
:1009a0001111800000102000008060000000e000b5
:1009b000fbff3200604680000090a0006046880087
:1009c0009580a9001d0037008580a900140037001c
:1009d00050468000104078000080fb002011880005
:1009e000504680000000e8005046880051468000d4
:1009f000808d2000808f500002003a00e08c2000a3
:100a000050468800604680000080a1006046880053
:100a10005146800040468000808f50000600320022
:100a20001111800000202000008060000000e00024
:100a3000e7ff320001003700000000000080fa00ec
:100a40004f00be0000400600809fbe000000fa007c
:100a50001800370020468000311180008140780066
:100a600001487800204680000000e8002046880009
:100a700021468000208e2000808f500002003a0026
:100a8000808d200020468800604680000010a10074
:100a9000604688002146800030468000808f5000ec
:100aa00004003a00604680000000a0006046880014
:100ab0000400370010118000610060000000e000b9
:100ac000e4ff3a008560a9000080fa004f00be00f4
:100ad00000400600801f78000000fa00101180001e
:100ae000620060000000e000010032002222a90044
:100af0008c20a9000080fa004f007800004006001a
:100b00000040da000000fe000a00fa001100200098
:100b1000b1bf9f00c0bf9f006a8057003a03070023
:100b20004fb897000080fa00000006000a00fa00a3
:100b300051002000b1bf9f00c0bf9f006a805700d6
:100b4000330307005fb897000080fa00000006003a
:100b5000889fbe0080047800504780000000e000bd
:100b600004003a000e0007000084eb000000e000e3
:100b700008003500584780000900e00005003200f9
:100b800009004400060007000000e00001003d00ed
:100b90000084eb00080078004f04be00000006004f
:100ba000800078000100e00003003a00000020000f
:100bb00050478800000005000080eb000200200084
:100bc000828f500002003e00514788000000eb0079
:100bd000000006000600fa00000f780011079800d8
:100be0002207980000000000111180000010200072
:100bf000008060000000e000fbff32001e0090005b
:100c0000ae009000790607000080fa0000000600a0
:100c1000000005000001be001b0007000470a700d3
:100c200003f0a10003f8a30013003a006509b10026
:100c300010003200090035006928e100020035008b
:100c400001002800000005000000400081804800ed
:100c50008502e900fcff3a0000000600f88f420020
:100c6000050035008100d1000080d3008502e80036
:100c7000fcff3a00000006008000eb0000000500c9
:100c80006011b80059003700c70ade00f107b20052
:100c9000f50fb20008003200e1cf4200020032003e
:100ca0000170a00024000500810f700001003200d7
:100cb0000408050044000500810f700002003a009e
:100cc000140005008502e9000000400081c04800d2
:100cd000fcff3b000170a00024000500889fbe00bf
:100ce0008a9fbe008c1f7800950007009c0033008f
:100cf00003866c006450e100240032006420e100af
:100d0000270032006150e100220032006120e10042
:100d1000210032008b854200eb07b1000134b8009e
:100d2000003ab8000804420089844a00013ab80039
:100d30000030b8008880400009014a0004003300f8
:100d40000000400081804800020149008b05e90055
:100d5000c909dd008301700001003200130020008a
:100d6000c814de004814dd004709de001200b2009e
:100d7000c808de00088470004b00070001f0a100e5
:100d80000cf0a70001f0a0007e0037006120e10018
:100d9000800032000801be000200be00f7ff3700ed
:100da0006150e100fcff3a007a0037006022b80091
:100db000060220000000d0008180d2000482d20010
:100dc0008582d2000000a0000202520083825a00f5
:100dd000030031000202420083824a000000a100a9
:100de0000603e900f3ff3a0000000600889fbe00fa
:100df0008a9fbe00008270000402710004827100ac
:100e0000260032000004be000200be006011b800df
:100e10006b092000950220000182cf000a003900f2
:100e20000541b1000082cf00070039000541b10043
:100e30000982cf00040039000541b1000882cf00cb
:100e4000010039000541b100054252001200320094
:100e50000a003b0082817100610164008100d100c1
:100e60000080d3008984d3000884d3008b05e80078
:100e70000442e800f7ff3a00070037000804440086
:100e800089844c0000004800818048008b05e900ff
:100e90000442e900f9ff3a00030007004f05be00d5
:100ea0004f04be0000000600810020006180550054
:100eb0000b003d000b00200061fe2f000100e1004f
:100ec0001d00340082817100610164008904d10039
:100ed0000884d3000000e800faff3a007100200007
:100ee000610064000300700002006000090032002d
:100ef00061044400e0844c000988a500050032002c
:100f00008b05e8006808e10002003a008904d1007e
:100f10000884d300f20f20000258e10005003d00d4
:100f2000c75ddd00f907b200898075000800780010
:100f3000000006000bf827008b0078000000050079
:100f40000004be0050ff07000003be000405be0001
:100f50000200be004cff0700844f75000000060031
:100f60000200be006450e100050036006420e1008c
:100f7000020036000968a30001003a000800be0024
:100f80000160a0004f0678004f05be004f04be0070
:100f900000000600f0ff2f00f1ff2700f9ff3700e7
:100fa000418620006a000700800078000080eb0086
:100fb0000100e0000400350041862000a000200070
:100fc000020007004f80de0000000600889fbe0080
:100fd0008a1f78000004be00c900900069009000dc
:100fe000808f50000500390009007800b700070025
:100ff0008080eb000000e000160035000845780016
:101000004900900008587800c00498001900780042
:1010100000b8a30004003a0000a8a30007003200b3
:10102000ea4f540005003a00090078000d0007005f
:101030008080eb000000e00006003a0000c02000c5
:10104000190060000200320049009000e00498009e
:101050008a80fb00010078004f0578004f04be0035
:1010600000000600889fbe008a1f780000047800f8
:101070000800e0000d003a00288b200070054400b5
:101080008004eb00580078000000e000040032000b
:10109000f4ff07000000e00001003d008084eb0049
:1010a0008a0f5400f7ff3a002500370000002200a5
:1010b000180060008004eb0021003200a8049000ba
:1010c0000f00370009015100384090000000fb007c
:1010d00089007800bffe07000000e00007003c0028
:1010e000280090004004980060049800500c98007c
:1010f0001890a0008084eb00110037008084440029
:1011000048019000828f5400eeff390028009000c3
:10111000400498009800780002c02000028160001e
:1011200001003a003800900001e8a30002003200fc
:101130006004980001003700500c98008004eb0018
:10114000090078004f0578004f04be00000006003b
:10115000889fbe008a9fbe0080047800010478004a
:101160002c003700c800900068009000808f50006d
:101170000400390008007800540007000000e00077
:1011800037003500004020001800600009003200e0
:10119000a1002000090078004200070080057800c7
:1011a0000b00e00003003200618514000a85450051
:1011b00004003700090078003400070000057800bb
:1011c0008005eb0048009000e8009000808050000f
:1011d0008a8f500002003100010578008005eb0085
:1011e0000a0178008900780021000700480090007b
:1011f0000a004000400498000b00e00004003200a8
:101200000800780097ff07000000e00014003a0093
:101210008a8444001904e000d2ff3a0000802000d4
:101220001800600006003200080078008dff0700fb
:10123000800078000080eb000100e00009003a0027
:1012400001c02000988060000000eb000500320023
:1012500048009000600498000000eb000100370097
:101260000080eb004f05be004f04be0000000600ea
:101270008001780002003700b15978000201e900ce
:101280000200e000fcff3a00000006008000780049
:10129000010178003104e000fdff3a000000510038
:1012a000000006000001eb0000027800b041780069
:1012b00081cf510001003a00040178000304e000ee
:1012c000f9ff3a000200780000000600889fbe0087
:1012d0008a1f780000047800c80090006801900020
:1012e0000000eb00828f50003c00390018007800ad
:1012f0002200290002016000e20f510007003200c5
:10130000012024000000e00001003d000120200039
:10131000008c70000080eb003000370002002600d7
:1013200002006000820f500009003a00380090006f
:10133000808f5000060039000800780049ff070040
:10134000800078000080eb000100e00023003a00fc
:101350001805780000c020000000650018003a0061
:10136000a80490006002200008004000808f540014
:1013700013003a0000202000ef000700200498002e
:101380000000e00005003a00290498004904980094
:101390008904e80039049800080037000a60a000ba
:1013a0000a0c780040049800012020008080400052
:1013b00031049800400c9800500c98000c00070075
:1013c00028009000500498003800900060049800b5
:1013d00000002600180c70000000eb004f0578009c
:1013e0004f04be0000000600a0a9200061003700e5
:1013f000881f7800688e20001804e00003003a007f
:10140000f9ff070020c0b300004c78004f047800bb
:1014100000000600889fbe000004780008007800e5
:1014200010ff07008004780000042000180060000e
:1014300002003200280090005a0007000000eb0074
:1014400020049800384090000004e00005003500ba
:101450000000fb00acfd07000000e00001003200ce
:101460008084eb00181090000000e00008003200bb
:10147000aefd07000000e000010032008084eb00b8
:1014800018109000470007000000eb0010149800af
:101490000008200018006000150032000001eb0079
:1014a0006000b800438b20000202d00063027a0083
:1014b000880f520005003a0000004000818048007b
:1014c000008041000008eb0006003700610040008a
:1014d000e08048000201e800e80f5000e08f58006b
:1014e000f0ff3a00080078002e0007000e003700d9
:1014f000000c780000c0eb0030449800600220002f
:10150000080040002004980040049800500498000f
:10151000400c980060049800500c980070049800eb
:1015200076004400000c9800090078004f04be00cb
:1015300000000600881f78000004eb006140b8003e
:10154000e2ff2f00f3ff2f00b3000700228c2000e2
:10155000620078000000e00001003200adff0700eb
:101560000804e800e80f5400f4ff3a004f04780044
:1015700000000600010020000100e0000800320029
:10158000010080000100e000050032008100e90058
:10159000010088008100d0000200800000b17800c6
:1015a000000006000000e0002f003200c0017800bb
:1015b000e38f51002c0036000308a3002a003a00f4
:1015c000214780000100e00002003200810f50003e
:1015d00004003100110098002047880016003700f1
:1015e00082007800110190000200e0000200320049
:1015f000800f5100faff3900110278008482400008
:10160000850f500018003900808f520003003a0007
:101610008308420001007800070037000200e00064
:101620000300320083014000830f51000e00390097
:101630001200980090009800900090000100e000d7
:101640000900320010014000828f500006003a006d
:10165000228e20000009eb001001780011084100e3
:10166000910090001100980000000600889fbe00c5
:1016700000047800114780000100e0000200320001
:10168000010078000d00370021478000408e2000c7
:1016900004003700910f5400250036000180e80057
:1016a000910090000100e000faff3a0010003700be
:1016b000920f54001e0036000280e80010017800ee
:1016c0000200e000faff3a00110178002147800093
:1016d000408e200004003700910f540014003600a3
:1016e0000180e80091009000828f5000faff3a00dc
:1016f00049478000888f5400010031008804780039
:1017000009007800360007000000e00004003a00fd
:10171000888f5400050032008904d100f5ff37009e
:10172000091878009fff0700d2ff37000000eb0088
:101730004f04be0000000600881f780063044000cc
:101740000800a1008000eb00800f5400210036004b
:10175000e30f540001003e0048002000080078001c
:10176000c2ff07008000eb000000e000190032001b
:10177000900078009101780064815100880f510039
:1017800003003100110190000208780007003700c3
:101790000881400002087800910190001301980030
:1017a00010017800110914008808780010017800f1
:1017b0000000eb000200e000040032009201900003
:1017c0000300e000010032000280e80010478800ba
:1017d0008180e800010078004f04780000000600d6
:1017e000800078000000eb000100e00005003400fc
:1017f00001007800d6fc0700e10f400001003a002c
:101800000000eb000000060000c0da000000060047
:1018100000c0da0000000600020ab900001bb9008f
:101820000200b80081004200810043000000060071
:020000040000fa
:1018300073650000746800006f6d000065000000b3
:10184000582000007365000074000000592000005b
:1018500073650000740000007365000074200000d0
:10186000686f00006d65000020660000696e000072
:101870006973000068000000456d00002000000052
:081880006f6b00000000000086
:020000040000fa
:101888000600fa00200798002e009000e10f500093
:1018980003003a00c402a800c422a90008003700c7
:1018a8002e009000e10f500003003400c402a8008d
:1018b800c422a90002003700c402a900c422a8005b
:1018c8002e00900000f0a7000000ea002007980012
:1018d8002e009000cf80de00b21124000289b900ea
:1018e800020178006002b900840178000301410018
:1018f800b31124000300b800010141008200780000
:10190800008fbe00008fbe001e00be0042062000f1
:101918000300200023fd0700008fbe001e00780092
:10192800000c88000080fa00000006000600fa009b
:10193800200798002e009000e10f500003003a00a5
:10194800c482a900cc82a900080037002e009000ac
:10195800e10f500003003400c482a800cc82a90023
:1019680002003700c482a900cc82a8002e00900093
:1019780000f0a7000000ea00200798002e00900061
:10198800cf80de00b21124000289b900020178007c
:101998006002b9008401780003014100b3112400fa
:1019a8000300b8000101410082007800008fbe00ea
:1019b800008fbe001e00be0042062000030020006b
:1019c800f8fc0700008fbe001e007800300c88006d
:1019d8000080fa00000006000600fa0020079800c0
:1019e8000000eb00000f78000000eb00000f78000b
:1019f8000c0037000000eb001007980004003700c7
:101a0800000000001e0090000000e8001007980089
:101a18009e009000f0f92000808f5000f8ff3600fb
:101a28001e0fe8002e0090009e0f5000f1ff3e00b0
:101a38000080fa00000006000400fa0005e1a90091
:101a480010c0b30001e8b70010002000000f7800b4
:101a5800100020001007980080c128004efd0700e4
:101a680002003700e001200085ff070050168000c3
:101a7800640060000000e000faff3a00401f200008
:101a8800d5ff070010ff2f007dff07000a00370071
:101a980001c8bf000004e00007003a001e007800fb
:101aa8000000e000040032000000eb0074ff0700b3
:101ab8000000eb00000f780001c8bf000004e00040
:101ac800f3ff3a0002003700a00020006cff070077
:101ad80050168000640060000000e000faff3a0041
:101ae800c402a800c422a800c0122000baff070040
:101af800e421ef0000c2280027fd070010c0b30052
:101b080002e8b70002003700e001200087ff070065
:101b180050168000680060000000e000faff3a00fc
:101b2800401f2000acff0700c0fe2f007fff07000a
:101b38000a00370002c8bf000004e00007003a00ae
:101b48001e0090000000e000040032000000eb00de
:101b580076ff07000000eb001007980002c8bf00de
:101b68000004e000f3ff3a0002003700a000200064
:101b78006eff070050168000680060000000e0005b
:101b8800faff3a00c482a800cc82a800c012200044
:101b980091ff0700f421ef0060c22800fefc070057
:101ba800c0c22800fcfc070005e1a8000080fa007c
:101bb800000006000000fa0060092000303a8800a2
:101bc800213a800000fe2f00008060005000b30022
:101bd800203a8800213a8000f0f32f00008060004e
:101be800203a88004827ef001200200080072000d4
:101bf800a1092000337420008049780081497800c9
:101c0800824978001200200060042000710520003d
:101c1800237420008049780081497800824978003f
:101c280000000000113a800000002700808060005a
:101c380000002100808f5000faff3a0000000000e9
:101c4800113a800000022000008060000000e000df
:101c5800fbff32000080fa00000006000000fa00d6
:101c68000600fc0012028000020eb3001202880077
:101c7800d0ff070021088000f0fc2f0000806000e2
:101c88000040a0002008880081088000f0fc2f0098
:101c9800008060000040a000800888009108800053
:101ca800f0fc2f00008060000040a0009008880031
:101cb800f1088000f0fc2f00008060000040a000c8
:101cc800f008880001098000f0fc2f000080600007
:101cd8000040a00000098800409c200010088800ef
:101ce800b011240060088800007122007008880084
:101cf80000352c00d008880000a62e00e0088800d7
:101d08008021ef00210c800080ff2f000080600000
:101d1800200c88008461a900210c800080ff2f001e
:101d2800008060006000b300200c88008621ef006e
:101d3800510c800080ff2f0000806000500c88004c
:101d48008a61a900510c800080ff2f00008060008c
:101d58006000b300500c8800e02e2000600c880062
:101d6800810c800080ff2f0000806000800c8800bc
:101d78009061a800810c800080ff2f000080600027
:101d88006000b300800c8800e02e2000900c8800d2
:101d9800b10c800080ff2f0000806000b00c88002c
:101da8009661a800b10c800080ff2f0000806000c1
:101db8006000b300b00c8800113a8000f00b2000de
:101dc8000081600060042000710520002374200059
:101dd800804978008149780082497800213580005f
:101de80000fe2f00008060006000b30020358800ee
:101df80021368000f00f2e00808060000030200027
:101e080001007000203688000135800000fe2f0098
:101e1800008060009000b300003588000135800024
:101e2800f00f2e000080600000b0a0000035880090
:101e3800e134800000fe2f0000806000a000b300a5
:101e4800e0348800e1348000f00f2e0080806000cc
:101e580000b0200001007000e034880001368000e6
:101e680000fe2f00008060002001b30000368800cb
:101e780001368000f00f2e008080600000302100c5
:101e8800010070000036880061368000f00f2e00d7
:101e980080806000004021000100700060368800ea
:101ea8006136800000fe2f00008060005001b30002
:101eb8006036880001348000f00f2e00008060003a
:101ec8000090a000003488001134800000fe2f002c
:101ed800008060003000b30010348800103a8000a1
:101ee800000178000260a000600420007105200055
:101ef800237420008049780081497800824978005d
:101f0800010f8000f08f2f0000806000000f880014
:101f1800e0c1a900010f8000f08f2f0080806000d1
:101f28000050200001007000000f8800110f800091
:101f3800f0f82f0000806000100f8800e2e1a80090
:101f4800810f8000f08f2f0000806000800f8800d4
:101f5800f0c1a900810f8000f08f2f008080600001
:101f68000050200001007000800f8800910f800051
:101f7800f0f82f0000806000900f8800f2e1a800c0
:101f8800a00480000000a000a0048800b104800024
:101f98000001220001007000b004880010048000d5
:101fa800100488002105800080ff2f000080600059
:101fb8000000a00020058800700580007000b300b4
:101fc800700588009105800000072000010070005e
:101fd800900588009460a8009760a8009780a800e2
:101fe80021058000f0ff28008080600000002300a9
:101ff800010070002005880081058000f0ff28009e
:102008000080600000c0a000800588009105800065
:1020180080ff2f00008060000000a000900588006d
:102028000080eb0060198800c0fe20004016880080
:10203800c0fe2f0000168800b115200060052000a2
:10204800e90007000600fc0011028000f141b2001f
:102058001102880011e1a80013e1a8001fe1a800ff
:1020680021e1a800c402a900c422a900c482a900d1
:10207800cc82a9000080fa00000006000000fa00e7
:102088000053270001002000a0418800b1418800ca
:102098000053270001002000c0418800d14188007a
:1020a8000080fa00000006000200fa00000f780025
:1020b8001e0078000000e00013003a00a10f800025
:1020c800c04c2700808f500004003600210f80008c
:1020d800c04c2700808f500009003e0000532700a5
:1020e80001002000a0418800b1418800005327006a
:1020f80001002000c0418800d1418800020037005b
:1021080010002000000f78001e007800e10f50003a
:1021180013003a00a10f800070252000808f500026
:1021280004003e00210f800070252000808f5000a1
:1021380009003600401f200001002000a04188004f
:10214800b1418800401f200001002000c0418800e4
:10215800d1418800020037000000eb00000f780032
:102168001e0078000080fa00000006001400fa0043
:10217800bafe070030fe07000040eb00004f780071
:102188000040eb00104798000000eb001007980093
:102198000000eb002007980000c8bf000004e00022
:1021a800030032000068ef00c0c328007afb070074
:1021b8006a004700a1002000d500070040079800ea
:1021c8004e0090000000e000750032000000eb00b7
:1021d800300798006e003700ea0047003e00900084
:1021e8000080400010407800e14f400006003a00af
:1021f8001e4078000004e00003003a0010c0b3005d
:10220800004f78005f003700ea0047003e0090006a
:102218000080400010407800e14f400006003a007e
:102228001e407800e14f500003003a0020c0b30080
:10223800004f7800530037001e407800e24f5000ee
:102248000b003a00ea0047003e0090000080400082
:10225800104078000080fb009e0090000100700094
:102268001007980030c0b300004f780045003700d1
:102278001e407800e34f500019003a00ea0047007a
:102288003e00900000804000104078000080fb0075
:102298004800dd009e0090000100700010079800c3
:1022a8001e0090008000eb0073fa0700d2cc2c00cf
:1022b800c32c240087fa070054fa070000007800ae
:1022c8008000eb00a0418800b14188000000eb00cd
:1022d8001007980040c0b300004f7800290037006d
:1022e8001e407800e44f50000b003a00ea00470017
:1022f8003e00900000804000104078000080fb0005
:10230800ae009000010070002007980050c0b30094
:10231800004f78001b0037001e407800e54f500042
:1023280018003a00ea0047003e0090000080400094
:10233800104078000080fb004800dd00ae009000ef
:1023480001007000200798002e0090008000eb002c
:1023580049fa0700d2cc2c00c32c24005dfa0700f0
:102368002afa0700000078008000eb00c0418800ce
:10237800d14188000000eb00200798000040eb00e6
:10238800004f78003e0090000000e80030079800f9
:10239800be0090004e009000808f50008eff3500e8
:1023a80030c8bf00e14f50000c003a0031c8bf00f0
:1023b800e14f500009003a001e409000e14f5000e4
:1023c80004003a0000c42800f3fa07000040eb00bc
:1023d80010479800000000006fff370010c0b300de
:1023e800104798006cff37000600fa0010079800a5
:1023f800210798002002a9000111800090ff2f00fa
:1024080000806000001188002062a8002082a900d6
:102418001e0090004011880023a2a90023e2a90011
:102428009560a8004d010700e08c20005046880008
:10243800e08c200040468800808d200030468800cf
:10244800808d200020468800604680000010a00093
:1024580060468800604680000090a00060468800c2
:10246800604680000080a1006046880060468000c9
:102478000000a100604688000000eb00000f780013
:1024880002003700000000001e0fe8002e00900038
:102498009e007800808f5000faff35000080fa0017
:1024a800000006000200fa000040eb00004f780030
:1024b80030468000104f7800304680000000e80069
:1024c8003046880031468000208e2000808f5000e2
:1024d80002003a00808d2000304688003146800096
:1024e80020468000808f500003003a00604680003c
:1024f8000010a00060468800604680000000a1002f
:10250800604688001e4078000080fa00000006003f
:102518000600fa00881f7800100798002107980025
:102528000000eb00000f78000900370060468000cb
:10253800620060000000e0000a003a001e009000ff
:102548001e044000d7ff0700004c78001e0fe8006b
:102558002e0090009e007800808f5000f3ff390015
:1025680001003700000000001e0078004f047800ca
:102578000080fa00000006000200fa00004f780010
:102588009580a900404680001e487800404680009b
:102598000000e8004046880041468000808d200009
:1025a800808f500002003a00e08c200040468800ee
:1025b800604680000090a100604688005146800077
:1025c80040468000808f500003003a00604680003b
:1025d8000080a000604688009580a8000080fa006e
:1025e800000006000600fa0010079800210798006e
:1025f8000000eb00000f78000a00370061468000f9
:1026080000102000008060000000e0000a003a008e
:102618001e0090001e004000104078001e0fe800c9
:10262800d5ff07002e0090009e007800808f500094
:10263800f2ff390001003700000000001e0078009a
:102648000080fa00000006000200fa000000eb001b
:10265800000f7800614680000020200000806000a4
:102668000000e000010032001e40a000614680002a
:1026780000102000008060000000e000010032002f
:102688001e30a00060468000610060000000e0008d
:10269800010032001e00a000604680006200600059
:1026a8000000e000020032001e20a00001003700f8
:1026b8001e10a0001e0078000080fa00000006002e
:1026c8000200fa00000f7800304680009e004000ab
:1026d800208e2000808f500008003900304680008e
:1026e8009e004000208e20000000ea00008040008c
:1026f800818d20006140780003003700304680005b
:102708001e004000104078000080fa00000006001b
:102718000800fa0020079800310798000000eb0035
:102728001007980010c0b300004f78003e009000da
:10273800e90f500007003e0060468000620060001c
:102748000000e00003003a002e0090000000e000c6
:1027580003003a000040eb00004f780035003700d6
:1027680030468000800078003e0090008080400065
:10277800808d20000000ea0000814000d0cc2c00b1
:102788000010b8004308de006a00b90000007800b5
:102798000000510010079800314680002046800054
:1027a800808f50000a003100314680003e009000c2
:1027b80080804000204680000000e900808f5000a3
:1027c800150036000040eb00004f7800120037007b
:1027d8003146800020468000808f50000e00360071
:1027e8009e009000808d2000808040003046800050
:1027f800808f5000080031009e009000808d2000de
:102808008080400020468000808f50000200390000
:102818000040eb00004f78001e4078000004e00004
:10282800040032003e009000a5ff0700ae009000b3
:10283800804878001e4078000080fa0000000600fa
:102848000000fa0060468000620060000000e000be
:102858000f003a002146800030468000808f5000eb
:102868000500360020468000800078003046800051
:102878000080500007003700204680008000780064
:1028880030468000008050006a0040000100370098
:102898000000eb000080fa00000006000000fa00cb
:1028a8006146800000102000008060000000e00009
:1028b8000f003a005146800040468000808f50004b
:1028c80005003600504680008000780040468000b1
:1028d80000805000070037005046800080007800d4
:1028e80040468000008050006a0040000100370028
:1028f8000000eb000080fa00000006000000fa006b
:10290800604680000000d100614060000080fb004c
:1029180000f0a7000000ea000000ea004f00de0017
:10292800004078000080fa00000006000000fa006d
:10293800604680004800de00614060000080fb00c7
:1029480000f0a7000000ea000000ea004f00de00e7
:10295800004078000080fa00000006000000fa003d
:1029680021e2a8002342a8000080fa000000060027
:102978000000fa0021e2a9002342a9000080fa0021
:10298800000006000000fa00101180000080fa0024
:042998000000060035
:020000040000fa
:10299c0000080000340000000000000034080000b3
:1029ac000800000002000000f401000000f4010027
:1029bc0000000000c40800001e0000000000000021
:1029cc003c0800008800000002000000010000002c
:1029dc000062080063086200086208006208620076
:1029ec000852080000000000000000000000000079
:1029fc0000000000000000000000000000000000cb
:102a0c000002080001018a00088b08008a088a006d
:102a1c00088a08008a087a000800000000000000fc
:102a2c00000000000000000000000000000000009a
:102a3c00000000000000020008020200b208b3000f
:102a4c0008b20800b208b20008b20800a2080000e0
:102a5c00000000000000000000000000000000006a
:102a6c000000000000000000000000003c086400b2
:102a7c00088c0800000000000000000000000000ae
:102a8c0000000000e608000002000000000000004a
:102a9c00e808000002000000020000000400000032
:102aac00e20800000400000000000000ea0800003a
:0c2abc000200000000000000000000000c
:020000040000fa
:0200000401f009
:04000000ffff0000fe
:020000040000fa
:0200000401f009
:04000400ffff0000fa
:020000040000fa
:0200000401f009
:04000800ffff0000f6
:020000040000fa
:0200000401f009
:04000c008700000069
:020000040000fa
:0200000401f009
:0400100003000000e9
:020000040000fa
:0200000401f009
:040014005f00000089
:020000040000fa
:0200000401f009
:04001800f7000000ed
:020000040000fa
:0200000401f009
:04001c00dfff000002
:00000001FF
