:020000040000fa
:080000000002040000000000f2
:020000040000fa
:04000800d60400001a
:020000040000fa
:04000c00d604000016
:020000040000fa
:04001000d604000012
:020000040000fa
:04001400d60400000e
:020000040000fa
:04001800d60400000a
:020000040000fa
:04001c00d604000006
:020000040000fa
:04002000d604000002
:020000040000fa
:04002400d6040000fe
:020000040000fa
:04002800d002000002
:020000040000fa
:04002c00d6040000f6
:020000040000fa
:04003000d6040000f2
:020000040000fa
:0400340010030000b5
:020000040000fa
:04003800d6040000ea
:020000040000fa
:04003c00d6040000e6
:020000040000fa
:04004000d6040000e2
:020000040000fa
:04004400d6040000de
:020000040000fa
:04004800d6040000da
:020000040000fa
:04004c00d6040000d6
:020000040000fa
:04005000d6040000d2
:020000040000fa
:040054007a0400002a
:020000040000fa
:040058000e04000092
:020000040000fa
:04005c00d6040000c6
:020000040000fa
:04006000d6040000c2
:020000040000fa
:04006400d6040000be
:020000040000fa
:04006800d6040000ba
:020000040000fa
:04006c00d6040000b6
:020000040000fa
:04007000d6040000b2
:020000040000fa
:04007400d6040000ae
:020000040000fa
:04007800e80200009a
:020000040000fa
:04007c00d6040000a6
:020000040000fa
:04008000d6040000a2
:020000040000fa
:04008400d60400009e
:020000040000fa
:04008800d60400009a
:020000040000fa
:04008c00d604000096
:020000040000fa
:04009000d604000092
:020000040000fa
:04009400fe03000067
:020000040000fa
:04009800060400005a
:020000040000fa
:04009c00fc02000062
:020000040000fa
:0400a000d604000082
:020000040000fa
:0400a400d60400007e
:020000040000fa
:0400a800d60400007a
:020000040000fa
:0400ac00d604000076
:020000040000fa
:0400b000d604000072
:020000040000fa
:0400b400d60400006e
:020000040000fa
:0400b800d60400006a
:020000040000fa
:0400bc00d604000066
:020000040000fa
:0400c000d604000062
:020000040000fa
:0400c400d60400005e
:020000040000fa
:0400c800d60400005a
:020000040000fa
:0400cc00d604000056
:020000040000fa
:0400d000d604000052
:020000040000fa
:0400d400d60400004e
:020000040000fa
:0400d800d60400004a
:020000040000fa
:0400dc00d604000046
:020000040000fa
:0400e000d604000042
:020000040000fa
:0400e400d60400003e
:020000040000fa
:0400e800d60400003a
:020000040000fa
:0400ec00d604000036
:020000040000fa
:0400f000d604000032
:020000040000fa
:0400f400d60400002e
:020000040000fa
:0400f800d60400002a
:020000040000fa
:0400fc00d604000026
:020000040000fa
:04010000d604000021
:020000040000fa
:04010400d60400001d
:020000040000fa
:04010800d604000019
:020000040000fa
:04010c00d604000015
:020000040000fa
:04011000d604000011
:020000040000fa
:04011400d60400000d
:020000040000fa
:04011800d604000009
:020000040000fa
:04011c00d604000005
:020000040000fa
:04012000d604000001
:020000040000fa
:04012400d6040000fd
:020000040000fa
:04012800d6040000f9
:020000040000fa
:04012c00c00400000b
:020000040000fa
:04013000d6040000f1
:020000040000fa
:04013400d6040000ed
:020000040000fa
:04013800d6040000e9
:020000040000fa
:04013c00d6040000e5
:020000040000fa
:04014000d6040000e1
:020000040000fa
:04014400d6040000dd
:020000040000fa
:04014800d6040000d9
:020000040000fa
:04014c00d6040000d5
:020000040000fa
:04015000d6040000d1
:020000040000fa
:04015400d6040000cd
:020000040000fa
:04015800d6040000c9
:020000040000fa
:04015c00d6040000c5
:020000040000fa
:04016000d6040000c1
:020000040000fa
:04016400d6040000bd
:020000040000fa
:04020800d604000018
:020000040000fa
:04020c00d604000014
:020000040000fa
:04021000d604000010
:020000040000fa
:04021400d60400000c
:020000040000fa
:04021800d604000008
:020000040000fa
:04021c00d604000004
:020000040000fa
:04022000d604000000
:020000040000fa
:04022400d6040000fc
:020000040000fa
:04022800d6040000f8
:020000040000fa
:04022c00d6040000f4
:020000040000fa
:04023000d6040000f0
:020000040000fa
:04023400d6040000ec
:020000040000fa
:04023800d6040000e8
:020000040000fa
:04023c00d6040000e4
:020000040000fa
:04024000d6040000e0
:020000040000fa
:04024400d6040000dc
:020000040000fa
:04024800d6040000d8
:020000040000fa
:04024c00d6040000d4
:020000040000fa
:04025000d6040000d0
:020000040000fa
:04025400d6040000cc
:020000040000fa
:04025800d6040000c8
:020000040000fa
:04025c00d6040000c4
:020000040000fa
:04026000d6040000c0
:020000040000fa
:04026400d6040000bc
:020000040000fa
:04026800d6040000b8
:020000040000fa
:04026c00d6040000b4
:020000040000fa
:04027000d6040000b0
:020000040000fa
:04027400d6040000ac
:020000040000fa
:04027800d6040000a8
:020000040000fa
:04027c00d6040000a4
:020000040000fa
:04028000d6040000a0
:020000040000fa
:04028400d60400009c
:020000040000fa
:04028800d604000098
:020000040000fa
:04028c00d604000094
:020000040000fa
:04029000d604000090
:020000040000fa
:04029400d60400008c
:020000040000fa
:04029800d604000088
:020000040000fa
:04029c00d604000084
:020000040000fa
:0402a000d604000080
:020000040000fa
:0402a400d60400007c
:020000040000fa
:0402a800d604000078
:020000040000fa
:0402ac00d604000074
:020000040000fa
:0402b000d604000070
:020000040000fa
:0402b400d60400006c
:020000040000fa
:0402b800d604000068
:020000040000fa
:0402bc00d604000064
:020000040000fa
:0402c000d604000060
:020000040000fa
:0402c400d60400005c
:020000040000fa
:0402c800d604000058
:020000040000fa
:0402cc00d604000054
:020000040000fa
:0402d000d604000050
:020000040000fa
:0402d400d60400004c
:020000040000fa
:0402d800d604000048
:020000040000fa
:0402dc00d604000044
:020000040000fa
:0402e000d604000040
:020000040000fa
:0402e400d60400003c
:020000040000fa
:0402e800d604000038
:020000040000fa
:0402ec00d604000034
:020000040000fa
:0402f000d604000030
:020000040000fa
:0402f400d60400002c
:020000040000fa
:0402f800d604000028
:020000040000fa
:0402fc00d604000024
:020000040000fa
:04030000d60400001f
:020000040000fa
:04030400d60400001b
:020000040000fa
:04030800d604000017
:020000040000fa
:04030c00d604000013
:020000040000fa
:04031000d60400000f
:020000040000fa
:04031400d60400000b
:020000040000fa
:04031800d604000007
:020000040000fa
:04031c00d604000003
:020000040000fa
:04032000d6040000ff
:020000040000fa
:04032400d6040000fb
:020000040000fa
:04032800d6040000f7
:020000040000fa
:04032c00d6040000f3
:020000040000fa
:04033000d6040000ef
:020000040000fa
:04033400d6040000eb
:020000040000fa
:04033800d6040000e7
:020000040000fa
:04033c00d6040000e3
:020000040000fa
:04034000d6040000df
:020000040000fa
:04034400d6040000db
:020000040000fa
:04034800d6040000d7
:020000040000fa
:04034c00d6040000d3
:020000040000fa
:04035000d6040000cf
:020000040000fa
:04035400d6040000cb
:020000040000fa
:04035800d6040000c7
:020000040000fa
:04035c00d6040000c3
:020000040000fa
:04036000d6040000bf
:020000040000fa
:04036400d6040000bb
:020000040000fa
:100400000f8d20000e7f24000e01880000000000e8
:10041000000020000000e000020032000001200087
:100420002002880014000700a40107000000e0007b
:1004300003003a00a018210001002000020037004c
:100440000000200001002000810f70000100320038
:1004500014000700000020000000e000020032004d
:1004600000000200000000009e0e020000000000dc
:100470000040da000000fe004440a900c001200056
:100480000000e0000300320000002000a00188000e
:100490004440a800000006008a1f78008b1f7800e7
:1004a0000000060091018800800478000000eb0045
:1004b0001a003700e284440032a0b4009905ba0063
:1004c000e284440032a0b4009906ba00e2844400f9
:1004d00032a0b4000006eb00476fde00fd07b2005b
:1004e000636ce10003003a00ebff07000000eb0043
:1004f0000a003700606ce10004003a00005deb0088
:100500008b05e900fdff3e00040037006168e10053
:10051000010032000086eb000b00070019c7ba008b
:100520001905ba000e04e00003003a000a00e000da
:10053000e0ff3a0000000600fe07b2009e018800be
:100540008a047800f5ff3700395dba008b05e900b1
:100550000c003200295dba008b05e900080032006a
:100560000c00e00003003a00e284440032a0b40032
:10057000f5ff370019ddba008b05e900faff3a00f4
:100580008904e800e184440032a0b40000000600c1
:10059000000000000000000000000000000000005b
:1005a000801f78000000fa00c402a900c422a9003c
:1005b000c482a900cc82a9001000200070408800ed
:1005c0008400a9000080fa004f0078000040060077
:1005d000801f78000000fa00804080000000e000ea
:1005e000010032001028ef008680a9000080fa0088
:1005f0004f00780000400600801f78000000fa00dd
:10060000904080000000e000010032001228ef005e
:1006100087a0a9000080fa004f0078000040060083
:100620003600f800809fbe00829fbe00849fbe00ff
:10063000869fbe001800fa00e1408000200f800075
:10064000008050008000eb00008fbe00f140800071
:10065000a00f8000008050008000eb002007980071
:1006600031079800a0408000b14080003e0110009a
:10067000ae8118000200be004007980051079800a4
:10068000c0408000d14080002e019000be0190004b
:1006900000005100818059006007980071079800a0
:1006a0004e009000de0090003e014000ae81480008
:1006b0000200be006a09b900020178006002b900b8
:1006c0008401780003014100a30020000300b8006a
:1006d0000101410082007800027122000300200025
:1006e000f7000700000f9800110f98006000b80095
:1006f000200f9800310f98000e08900000f0a7001e
:100700000000ea00000c88002e08900000f0a7000e
:100710000000ea00300c88008e089000c0f92f001d
:10072000808f5000070035008e08900040062000a2
:10073000808f500003003c00c402a800c422a8001f
:100740000a0037000e0890009e089000e00f50004d
:10075000e08f580003003400c402a800c422a9009e
:1007600002003700c402a900c422a800ae0890000d
:10077000c0f92f00808f500007003500ae089000b0
:1007800040062000808f500003003c00c482a80077
:10079000cc82a8000a0037002e089000be08900006
:1007a000e00f5000e08f580003003400c482a8001e
:1007b000cc82a90002003700c482a900cc82a80024
:1007c0001e01be00a2408800b34088002e019000a8
:1007d000be019000c2408800d34088008460a90018
:1007e0000080fa004f03be004f02be004f01be0062
:1007f0004f00be003600f900004006000000fa007d
:100800008760a9000080fa00004006000000fa009e
:100810008780a9000080fa0000400600809fbe008b
:100820000000fa007145800060458000808f500014
:1008300010003a0081458000001020000080600018
:100840000000e0000b003a000000000011118000e1
:1008500000102000008060000000e000fbff32007c
:10086000804580000090a000804588009580a90008
:100870001d0037008580a9001400370070458000f6
:10088000104078000080fb00201188007045800037
:100890000000e8007045880071458000c08b200092
:1008a000808f500002003a00208b200070458800a5
:1008b000804580000080a10080458800714580004f
:1008c00060458000808f50000600320011118000ca
:1008d00000202000008060000000e000e7ff320000
:1008e00001003700000000000080fa004f00be0049
:1008f00000400600809fbe000000fa00180037008c
:100900004045800031118000814078000148780026
:10091000404580000000e8004045880041458000d7
:10092000608c2000808f500002003a00c08b2000b5
:1009300040458800804580000010a1008045880067
:100940004145800050458000808f500004003a00ef
:10095000804580000000a00080458800040037002a
:1009600010118000610060000000e000e4ff3a0028
:100970008560a9000080fa004f00be00004006001c
:10098000801f78000000fa001011800062006000f3
:100990000000e000010032002222a9008c20a90002
:1009a0000080fa004f007800004006000040da00a6
:1009b0000000fe000a00fa0011002000b1bf9f00f5
:1009c000c0bf9f006a805700760207004fb89700ab
:1009d0000080fa00000006000a00fa005100200022
:1009e000b1bf9f00c0bf9f006a8057006f02070021
:1009f0005fb897000080fa0000000600889fbe00e4
:100a000080047800704680000000e00004003a0096
:100a10000e0007000084eb000000e0000800350035
:100a2000784680000900e00005003200090044001b
:100a3000060007000000e00001003d000084eb001c
:100a4000080078004f04be00000006008000780017
:100a50000100e00003003a0000002000704688001a
:100a6000000005000080eb0002002000828f500093
:100a700002003e00714688000000eb000000060006
:100a80000600fa00000f780011079800220798006e
:100a900000000000111180000010200000806000a4
:100aa0000000e000fbff32001e009000ae0090004e
:100ab0002c0507000080fa00000006000000050079
:100ac000839f68000100e00002003d00600010000c
:100ad000e08018000300e00002003d00600111000a
:100ae000e0811900050007004f00e00002003b0014
:100af00060001000e0801800000006006022b800ce
:100b0000060220000000d0008180d2000482d200c2
:100b10008582d2000000a0000202520083825a00a7
:100b2000030031000202420083824a000000a1005b
:100b30000603e900f3ff3a0000000600818420006c
:100b40006a000700800078000080eb000100e000f0
:100b50000400350081842000a0002000020007006e
:100b60004f80de0000000600889fbe008a1f7800cc
:100b70000004be00c900900069009000808f500002
:100b80000500390009007800b70007008080eb00fd
:100b90000000e0001600350008457800490090008c
:100ba00008587800c00498001900780000b8a30025
:100bb00004003a0000a8a30007003200ea4f5400e6
:100bc00005003a00090078000d0007008080eb0066
:100bd0000000e00006003a0000c02000190060009c
:100be0000200320049009000e00498008a80fb0077
:100bf000010078004f0578004f04be000000060099
:100c0000889fbe008a1f7800000478000800e0007a
:100c10000d003a0068892000700544008004eb0054
:100c2000580078000000e00004003200f4ff0700e4
:100c30000000e00001003d008084eb008a0f5400ba
:100c4000f7ff3a002500370000002200180060007e
:100c50008004eb0021003200a80490000f00370050
:100c600009015100384090000000fb008900780025
:100c700083ff07000000e00007003c002800900010
:100c80004004980060049800500c98001890a00050
:100c90008084eb00110037008084440048019000fc
:100ca000828f5400eeff3900280090004004980025
:100cb0009800780002c020000281600001003a0024
:100cc0003800900001e8a3000200320060049800a0
:100cd00001003700500c98008004eb0009007800f8
:100ce0004f0578004f04be0000000600889fbe003c
:100cf0008a9fbe0080047800010478002c00370031
:100d0000c800900068009000808f500004003900f7
:100d100008007800540007000000e00037003500ac
:100d2000004020001800600009003200a1002000ef
:100d30000900780042000700800578000b00e00001
:100d400003003200618514000a8545000400370065
:100d50000900780034000700000578008005eb00ea
:100d600048009000e8009000808050008a8f50007a
:100d700002003100010578008005eb000a017800cf
:100d80008900780021000700480090000a00400018
:100d9000400498000b00e0000400320008007800d6
:100da00097ff07000000e00014003a008a84440026
:100db0001904e000d2ff3a00008020001800600013
:100dc00006003200080078008dff070080007800e0
:100dd0000080eb000100e00009003a0001c02000a3
:100de000988060000000eb00050032004800900091
:100df000600498000000eb00010037000080eb0069
:100e00004f05be004f04be000000060080017800c0
:100e100002003700b15978000201e9000200e00049
:100e2000fcff3a0000000600800078000101780015
:100e30003104e000fdff3a00000051000000060010
:100e40000001eb0000027800b041780081cf510032
:100e500001003a00040178000304e000f9ff3a00c1
:100e60000200780000000600889fbe008a1f7800fc
:100e700000047800c8009000680190000000eb00ba
:100e8000828f50003c0039001800780022002900b1
:100e900002016000e20f510007003200012024002f
:100ea0000000e00001003d0001202000008c7000e7
:100eb0000080eb00300037000200260002006000d6
:100ec000820f500009003a0038009000808f5000d7
:100ed000060039000800780049ff0700800078000c
:100ee0000080eb000100e00023003a0018057800c4
:100ef00000c020000000650018003a00a80490001f
:100f00006002200008004000808f540013003a0067
:100f100000202000ef000700200498000000e000ff
:100f200005003a0029049800490498008904e80063
:100f300039049800080037000a60a0000a0c780005
:100f40004004980001202000808040003104980077
:100f5000400c9800500c98000c00070028009000ee
:100f600050049800380090006004980000002600ab
:100f7000180c70000000eb004f0578004f04be0015
:100f8000000006008086200061003700881f78007e
:100f9000a88c20001804e00003003a00f9ff0700c5
:100fa00020c0b300004c78004f0478000000060019
:100fb000889fbe00000478000800780010ff07003a
:100fc0008004780000042000180060000200320055
:100fd000280090005a0007000000eb002004980051
:100fe000384090000004e000050035000000fb00e0
:100ff00070fe07000000e000010032008084eb007a
:10100000181090000000e0000800320072fe070097
:101010000000e000010032008084eb001810900016
:10102000470007000000eb001014980000082000a3
:1010300018006000150032000001eb006000b800ed
:10104000838920000202d00063027a00880f5200d8
:1010500005003a0000004000818048000080410007
:101060000008eb000600370061004000e080480007
:101070000201e800e80f5000e08f5800f0ff3a004e
:10108000080078002e0007000e003700000c7800e2
:1010900000c0eb00304498006002200008004000cf
:1010a000200498004004980050049800400c9800d8
:1010b00060049800500c980070049800760044007a
:1010c000000c9800090078004f04be0000000600e4
:1010d000881f78000004eb006140b800e2ff2f0099
:1010e000f3ff2f00b3000700628a2000620078003f
:1010f0000000e00001003200adff07000804e80036
:10110000e80f5400f4ff3a004f0478000000060096
:10111000010020000100e000080032000100800012
:101120000100e000050032008100e90001008800b4
:101130008100d0000200800000b1780000000600ad
:101140000000e0002f003200c0017800e38f510062
:101150002c0036000308a3002a003a004146800014
:101160000100e00002003200810f50000400310055
:101170001100980040468800160037008200780071
:10118000110190000200e00002003200800f5100c7
:10119000faff39001102780084824000850f500068
:1011a00018003900808f520003003a008308420083
:1011b00001007800070037000200e0000300320061
:1011c00083014000830f51000e0039001200980087
:1011d00090009800900090000100e00009003200ab
:1011e00010014000828f500006003a00628c2000ff
:1011f0000009eb00100178001108410091009000f7
:101200001100980000000600889fbe0000047800ce
:10121000314680000100e000020032000100780049
:101220000d00370041468000808c2000040037000c
:10123000910f5400250036000180e80091009000d5
:101240000100e000faff3a0010003700920f54004e
:101250001e0036000280e800100178000200e00065
:10126000faff3a001101780041468000808c20008e
:1012700004003700910f5400140036000180e8008c
:1012800091009000828f5000faff3a00694680007a
:10129000888f54000100310088047800090078002c
:1012a000360007000000e00004003a00888f540078
:1012b000050032008904d100f5ff370009187800d5
:1012c0009fff0700d2ff37000000eb004f04be0075
:1012d00000000600881f7800630440000800a10099
:1012e0008000eb00800f540021003600e30f540013
:1012f00001003e004800200008007800c2ff0700ff
:101300008000eb000000e00019003200900078003f
:101310009101780064815100880f51000300310071
:101320001101900002087800070037000881400092
:1013300002087800910190001301980010017800d4
:101340001109140088087800100178000000eb00f3
:101350000200e00004003200920190000300e0006f
:10136000010032000280e800304688008180e800f9
:10137000010078004f04780000000600800078002b
:101380000000eb000100e0000500340001007800df
:101390009afd0700e10f400001003a000000eb0059
:1013a0000000060000c0da000000060000c0da00fd
:1013b00000000600020ab900001bb9000200b800d4
:0c13c00081004200810043000000060094
:020000040000fa
:1013cc0073650000746800006f6d0000650000001c
:1013dc007365000074200000686f00006d650000ec
:1013ec0020660000696e0000697300006800000050
:0813fc00456d00002000000017
:020000040000fa
:101404000600fa00200798002e009000e10f50001b
:1014140003003a00c402a800c422a900080037004f
:101424002e009000e10f500003003400c402a80015
:10143400c422a90002003700c402a900c422a800e3
:101444002e00900000f0a7000000ea00200798009a
:101454002e009000cf80de00027122000289b900c4
:10146400020178006002b9008401780003014100a0
:10147400037122000300b8000101410082007800da
:10148400008fbe00008fbe001e00be00420620007a
:101494000300200098fd0700008fbe001e007800a6
:1014a400000c88000080fa00000006000600fa0024
:1014b400200798002e009000e10f500003003a002e
:1014c400c482a900cc82a900080037002e00900035
:1014d400e10f500003003400c482a800cc82a900ac
:1014e40002003700c482a900cc82a8002e0090001c
:1014f40000f0a7000000ea00200798002e009000ea
:10150400cf80de00027122000289b9000201780056
:101514006002b900840178000301410003712200d4
:101524000300b8000101410082007800008fbe0072
:10153400008fbe001e00be004206200003002000f3
:101544006dfd0700008fbe001e007800300c88007f
:101554000080fa00000006000600fa002007980048
:101564000000eb00000f78000000eb00000f780093
:101574000c0037000000eb0010079800040037004f
:10158400000000001e0090000000e8001007980012
:101594009e009000f0f92000808f5000f8ff360084
:1015a4001e0fe8002e0090009e0f5000f1ff3e0039
:1015b4000080fa00000006000400fa0005e1a9001a
:1015c400100020008040880010002000000f7800e8
:1015d4001000200010079800609e280056fd0700a8
:1015e400020037004001200085ff070050168000ec
:1015f400640060000000e000faff3a00401f200091
:10160400d5ff07000a003700804080000000e0009a
:1016140007003a001e0078000000e00004003200d9
:101624000000eb0076ff07000000eb00000f7800dd
:10163400804080000000e000f3ff3a000200370021
:10164400200020006eff0700501680006400600038
:101654000000e000faff3a00c402a800c422a80077
:10166400401f2000bcff0700e421ef001000200011
:101674009040880002003700400120008bff0700e3
:1016840050168000680060000000e000faff3a0095
:10169400401f2000b0ff070090ff2f0083ff0700ca
:1016a4000a003700904080000000e00007003a0084
:1016b4001e0090000000e000040032000000eb0077
:1016c4007aff07000000eb001007980090408000ac
:1016d4000000e000f3ff3a00020037002000200081
:1016e40072ff070050168000680060000000e000f0
:1016f400faff3a00c482a800cc82a800401f200050
:1017040095ff0700f421ef00e09e28000afd070082
:1017140005e1a8000080fa00000006000000fa00bd
:1017240060092000303a8800213a800000fe2f0032
:10173400008060005000b300203a8800213a800005
:10174400f0f32f0000806000203a88004827ef0063
:101754001200200080072000a1092000337420001b
:10176400804978008149780082497800120020007d
:101774006004200071052000237420008049780053
:10178400814978008249780000000000113a800005
:10179400000027008080600000002100808f50003e
:1017a400faff3a0000000000113a80000002200015
:1017b400008060000000e000fbff32000080fa00bf
:1017c400000006000000fa000600fc00120280007f
:1017d400020eb30012028800d0ff07002108800027
:1017e400f0fc2f00008060000040a000200888006a
:1017f40081088000f0fc2f00008060000040a00001
:101804008008880091088000f0fc2f0000806000b0
:101814000040a00090088800f1088000f0fc2f0030
:10182400008060000040a000f008880001098000ea
:10183400f0fc2f00008060000040a0000009880038
:10184400801a2600100888000071220060088800b1
:101854000071220070088800801a2600d0088800d1
:10186400801a2600e00888008021ef00210c800007
:1018740080ff2f0000806000200c88008461a90094
:10188400210c800080ff2f00008060006000b30006
:10189400200c88008621ef00510c800080ff2f006f
:1018a40000806000500c88008a61a900510c8000ff
:1018b40080ff2f00008060006000b300500c88009f
:1018c400e02e2000600c8800810c800080ff2f0037
:1018d40000806000800c88009061a800810c80006a
:1018e40080ff2f00008060006000b300800c88003f
:1018f400e02e2000900c8800b10c800080ff2f00a7
:1019040000806000b00c88009661a800b10c8000d3
:1019140080ff2f00008060006000b300b00c8800de
:10192400113a8000f00b2000008160006004200068
:1019340071052000237420008049780081497800d3
:10194400824978002135800000fe2f00008060006d
:101954006000b3002035880021368000f00f2e008f
:101964008080600000302000010070002036880074
:101974000135800000fe2f00008060009000b3005d
:101984000035880001358000f00f2e0000806000d3
:1019940000b0a00000358800e134800000fe2f0074
:1019a40000806000a000b300e0348800e1348000cf
:1019b400f00f2e008080600000b020000100700055
:1019c400e03488000136800000fe2f0000806000b3
:1019d4002001b3000036880001368000f00f2e008d
:1019e4008080600000302100010070000036880013
:1019f40061368000f00f2e008080600000402100de
:101a040001007000603688006136800000fe2f00ff
:101a1400008060005001b30060368800013480000b
:101a2400f00f2e00008060000090a00000348800b9
:101a34001134800000fe2f00008060003000b300ed
:101a440010348800103a8000000178000260a00081
:101a54006004200071052000237420008049780070
:101a64008149780082497800010f8000f08f2f00af
:101a740000806000000f8800e0c1a900010f800011
:101a8400f08f2f0080806000005020000100700063
:101a9400000f8800110f8000f0f82f000080600014
:101aa400100f8800e2e1a800810f8000f08f2f0062
:101ab40000806000800f8800f0c1a900810f8000c1
:101ac400f08f2f0080806000005020000100700023
:101ad400800f8800910f8000f0f82f0000806000d4
:101ae400900f8800f2e1a800a00480000000a0008c
:101af400a0048800b10480000001220001007000ed
:101b0400b0048800100480001004880021058000bf
:101b140080ff2f00008060000000a00020058800e6
:101b2400700580007000b300700588009105800086
:101b34000007200001007000900588009460a80050
:101b44009760a8009780a80021058000f0ff280076
:101b540080806000000023000100700020058800e0
:101b640081058000f0ff28008080600000002300d1
:101b740001007000800588009105800080ff2f001f
:101b8400008060003000b300900588000080eb0006
:101b940060198800c0fe200040168800c0fe2f0097
:101ba40000168800b1152000600520006d000700b4
:101bb4000600fc0011028000f141b200110288000d
:101bc40011e1a80013e1a8001fe1a80021e1a80089
:101bd400c402a900c422a900c482a900cc82a9001d
:101be4000080fa00000006000000fa00020037003e
:101bf400a000200002fe0700210f8000f052270001
:101c0400808f5000faff36000200370060ff2f007b
:101c1400fbfd0700210f8000401f2000808f500033
:101c2400faff3e000000eb00f5fd0700020037005c
:101c3400a00020001dfe0700a10f8000f052270025
:101c4400808f5000faff36000200370060ff2f003b
:101c540016fe0700a10f8000401f2000808f500057
:101c6400faff3e000000eb0010fe070004003700fe
:101c7400a0002000e2fd0700a00020000bfe0700ea
:101c8400210f8000f0522700808f5000f8ff3600ab
:101c94000400370060ff2f00d9fd070060ff2f000c
:101ca40002fe0700210f8000401f2000808f50009b
:101cb400f8ff3e000000eb00d1fd07000000eb0040
:101cc400fafd070000000000feff37000000fa00e4
:101cd40000532700e040880000532700f0408800ac
:101ce4000100370000000000a10f8000f05227001f
:101cf400808f5000fbff3600401f200016fe0700b7
:101d0400401f2000e0408800401f2000f040880071
:101d14000100370000000000a10f8000401f2000d8
:101d2400808f5000fbff3e00401f20000afe07008a
:101d34000080fa00000006000000fa00a1fe07007f
:101d44001dfe0700704080000000e0000300320028
:101d54000e28ef00e09f280077fb0700dbff070059
:101d6400f8ff37000600fa001007980021079800d2
:101d74002002a9000111800090ff2f000080600064
:101d8400001188002062a8002082a9001e00900093
:101d94004011880023a2a90023e2a9009560a800ad
:101da4004d010700208b200070458800208b200007
:101db40060458800c08b200050458800c08b2000ff
:101dc40040458800804580000010a00080458800c0
:101dd400804580000090a0008045880080458000f8
:101de4000080a10080458800804580000000a1009b
:101df400804588000000eb00000f780002003700e7
:101e0400000000001e0fe8002e0090009e007800e5
:101e1400808f5000faff35000080fa0000000600b1
:101e24000200fa000040eb00004f780050458000ab
:101e3400104f7800504580000000e80050458800ad
:101e440051458000608c2000808f500002003a00d1
:101e5400c08b2000504588005145800040458000db
:101e6400808f500003003a00804580000010a000dd
:101e740080458800804580000000a10080458800de
:101e84001e4078000080fa00000006000600fa00f8
:101e9400881f780010079800210798000000eb00c5
:101ea400000f780009003700804580006200600060
:101eb4000000e0000a003a001e0090001e044000ea
:101ec400d7ff0700004c78001e0fe8002e0090009a
:101ed4009e007800808f5000f3ff39000100370026
:101ee400000000001e0078004f0478000080fa0013
:101ef400000006000200fa00004f78009580a90057
:101f0400604580001e487800604580000000e800bd
:101f14006045880061458000c08b2000808f5000a0
:101f240002003a00208b2000604588008045800034
:101f34000090a100804588007145800060458000c4
:101f4400808f500003003a00804580000080a0008c
:101f5400804588009580a8000080fa0000000600f3
:101f64000600fa0010079800210798000000eb0013
:101f7400000f78000a00370081458000001020001f
:101f8400008060000000e0000a003a001e0090009b
:101f94001e004000104078001e0fe800d5ff070027
:101fa4002e0090009e007800808f5000f2ff3900d0
:101fb40001003700000000001e0078000080fa00d5
:101fc400000006000200fa000000eb00000f780099
:101fd4008145800000202000008060000000e000b7
:101fe400010032001e40a000814580000010200046
:101ff400008060000000e000010032001e30a000fc
:1020040080458000610060000000e00001003200b3
:102014001e00a00080458000620060000000e00017
:10202400020032001e20a000010037001e10a00094
:102034001e0078000080fa00000006000200fa008a
:10204400000f7800504580009e004000608c200006
:10205400808f500008003900504580009e004000e9
:10206400608c20000000ea0000804000c18b20004a
:102074006140780003003700504580001e00400096
:10208400104078000080fa00000006000800fa0002
:1020940020079800310798000000eb001007980013
:1020a40010c0b300004f78003e009000e90f5000cc
:1020b40007003e0080458000620060000000e000f0
:1020c40003003a002e0090000000e00003003a00f4
:1020d4000040eb00004f7800350037005045800089
:1020e400800078003e00900080804000c08b20007b
:1020f4000000ea0000814000d0cc2c000010b800a1
:102104004308de006a00b9000000780000005100b6
:10211400100798005145800040458000808f500092
:102124000a003100514580003e009000808040004c
:10213400404580000000e900808f50001500360003
:102144000040eb00004f780012003700514580003a
:1021540040458000808f50000e0036009e009000a5
:10216400c08b20008080400050458000808f50004c
:10217400080031009e009000c08b20008080400049
:1021840040458000808f5000020039000040eb0081
:10219400004f78001e4078000004e0000400320084
:1021a4003e009000a5ff0700ae0090008048780034
:1021b4001e4078000080fa00000006000000fa00cb
:1021c40080458000620060000000e0000f003a00db
:1021d4004145800050458000808f50000500360046
:1021e4004045800080007800504580000080500009
:1021f400070037004045800080007800504580008b
:10220400008050006a004000010037000000eb002d
:102214000080fa00000006000000fa0081458000fa
:1022240000102000008060000000e0000f003a0071
:102234007145800060458000808f500005003600a5
:102244007045800080007800604580000080500068
:1022540007003700704580008000780060458000ea
:10226400008050006a004000010037000000eb00cd
:102274000080fa00000006000000fa00804580009b
:102284000000d100614060000080fb0000f0a70066
:102294000000ea000000ea004f00de000040780081
:1022a4000080fa00000006000000fa00804580006b
:1022b4004800de00614060000080fb0000f0a700e1
:1022c4000000ea000000ea004f00de000040780051
:1022d4000080fa00000006000000fa0021e2a800d5
:1022e4002342a8000080fa00000006000000fa0063
:1022f40021e2a9002342a9000080fa0000000600a0
:102304000000fa00101180000080fa0000000600ae
:020000040000fa
:10231400000800001c000000000000001c08000071
:102324000400000002000000f401f40001000000b9
:10233400a80800001e0000000000000020080000a3
:1023440088000000020000000100000000460800b0
:1023540047084600084608004608460008360800b4
:102364000000000000000000000000000000000069
:10237400000000000000000000000000000208004f
:1023840001016e00086f08006e086e00086e0800f8
:102394006e085e000800000000000000000000005d
:1023a4000000000000000000000000000000000029
:1023b4000000020008020200960897000896080030
:1023c40096089600089608008608000000000000a1
:1023d40000000000000000000000000000000000f9
:1023e40000000000000000002008480008700800f9
:1023f40000000000000000000000000000000000d9
:10240400ca0800000200000000000000cc08000020
:10241400020000000200000004000000c6080000e2
:102424000400000000000000ce08000002000000cc
:082434000000000000000000a0
:020000040000fa
:0200000401f009
:04000000ffff0000fe
:020000040000fa
:0200000401f009
:04000400ffff0000fa
:020000040000fa
:0200000401f009
:04000800ffff0000f6
:020000040000fa
:0200000401f009
:04000c008700000069
:020000040000fa
:0200000401f009
:0400100003000000e9
:020000040000fa
:0200000401f009
:040014005f00000089
:020000040000fa
:0200000401f009
:04001800f7000000ed
:020000040000fa
:0200000401f009
:04001c00dfff000002
:00000001FF
